S02B00007261696C5F736F635F656D7074795F65667233325F66673233423031305F463531325F494D34302ED1
S3150800000000080020C1050008219400082194000872
S31508000010AFA0000821940008219400082194000844
S3150800002021940008219400082194000821940008CE
S3150800003021940008219400082194000821940008BE
S3150800004021940008219400082194000821940008AE
S31508000050219400082194000821940008219400089E
S31508000060219400082194000821940008219400088E
S3150800007021940008850400087504000821940008E6
S31508000080219400082194000821940008219400086E
S315080000902194000821940008B50C00082194000852
S315080000A02194000821940008F10D0008C90D0008E4
S315080000B02194000821940008A9620008196D000817
S315080000C03FA300083BA30008E56400084BA300080B
S315080000D043A30008F16C000847A300087D6D0008DB
S315080000E0B96D00082194000821940008219400089D
S315080000F021940008219400082194000821940008FE
S3150800010021940008219400082194000821940008ED
S3150800011021940008219400082194000821940008DD
S3150800012021940008219400082194000821940008CD
S3150800013021940008219400082194000821940008BD
S3150800014021940008219400082194000821940008AD
S315080001502194000821940008E3A00008418E0008B5
S31508000160219400082194000887A700088DA7000895
S315080001700348044B834202D0034B03B11847704728
S31508000180280A0020280A002000000000064B07491C
S31508000190C91A891048BF0131491003D0044B0BB165
S315080001A001481847704700BF280A0020280A00207F
S315080001B00000000010B5064C237843B9FFF7D8FFB6
S315080001C0044B13B10448AFF300800123237010BD1C
S315080001D0BA14002000000000BC09010808B5054B48
S315080001E01BB105490548AFF30080BDE80840FFF795
S315080001F0CDBF00BF00000000580C0020BC09010854
S31508000200A3F5803A704700BF174B002B08BF134B66
S315080002109D46FFF7F5FF00218B460F461348144A03
S31508000220121A0AF028FB0E4B002B00D098470D4BEC
S31508000230002B00D098470020002104000D000D482F
S31508000240002802D00C48AFF3008009F06DF82000B2
S31508000250290000F013F809F055F800BF000008005F
S31508000260000000000000000000080020280A002006
S31508000270E0140020000000000000000008B509F0A6
S3150800028053FF09F075F8044B186009F059FF024B43
S31508000290186809F072F8F8E7700C002008B501F044
S315080002A03DFC09F09EFC264A136F23F0070343F032
S315080002B00303136701F092FD224B9B6A13F0807FBC
S315080002C003D1214B4FF480329A621D4BD3F820217B
S315080002D022F0070242F00202C3F82021D3F82821AF
S315080002E022F0070242F00202C3F82821D3F840217F
S315080002F022F0030242F00102C3F84021D3F860213C
S3150800030022F0030242F00102C3F86021D3F840222A
S3150800031022F0030242F00102C3F84022D3F8002279
S3150800032022F0070242F00102C3F80022D3F808229D
S3150800033022F0070242F00102C3F80822002008BD95
S31508000340008000500040005A0060005A10B4194B53
S315080003505A6E02F4803203F580514FF480304866B5
S31508000360586E4FF000434B66134B596C01F0010170
S315080003704AF6CD341C64104B5B6B13F0010FFAD1AF
S315080003800E4B01245C600C4B1B6B13F0010FFAD06B
S3150800039011B1094B0A491964002803DB094B4FF0D0
S315080003A0004159661AB9074B4FF480325A665DF810
S315080003B0044B704700800050004009500060095007
S315080003C03254FFFF00A0005030B59FB0244C0DF109
S315080003D0580CA646BEE80F00ACE80F009EE80F00D2
S315080003E08CE80F00302200210AA80AF044FA1D4BB7
S315080003F00A9301258DF82D5057230C930D9502234A
S315080004008DF8383005220F928DF840300623119367
S3150800041008AA203494E8030082E803000DF1080CCA
S3150800042000230293039304930593069307938CE89A
S3150800043003000D238DF810300E238DF811300A4B6A
S315080004400593202306938DF81D50084B00930AAB9D
S3150800045016AA6146064802F091FD1FB030BD00BFDE
S315080004606CAE000800000A50740C0020940C0020A2
S31508000470F80C002008B5024809F0B4FC08BD00BF16
S31508000480F80C002008B5024809F0ACFC08BD00BF0E
S31508000490F80C002010B58AB000230693079308933A
S315080004A00993254B0693254906A806F0FBFC244B21
S315080004B0186030B10023059305A90AF032F808B18F
S315080004C0FEE7FEE71E4C1F4A1F4B1968206806F018
S315080004D009FF0021206809F011FC00B1FEE71B495D
S315080004E0174B186806F02AFF00B1FEE74FF0FF32F7
S315080004F040F2FF33CDE900234FF0FF324FF0FF33D0
S315080005000F49086809F0AFFF00B1FEE7104B1B88DA
S31508000510ADF81030ADF80C3004A9094B186809F08D
S315080005208AFF00B1FEE703A9054B186809F099FF91
S3150800053000B1FEE70AB010BD11940008F393000855
S3150800054010080020FD93000800080020070011008D
S3150800055094AE000882B0054B019302AB03EB800012
S3150800056050F8043C186802B0704700BF1008002015
S3150800057018B1034A1060002070472520704700BF55
S31508000580100D002010B5044C0449206800F07EFDCB
S315080005902068FFF7EDFF10BD400900201408002071
S315080005A008B50448044A121A9210044908F039FF9B
S315080005B008BD00BFF80B0108F80B0108E01400207D
S315080005C008B500F02FF8FFF7EBFF124A0AE01068AB
S315080005D0516850F8230041F82300013391688B4293
S315080005E0F5D30C320C4B9A4201D20023F6E70B4A9C
S315080005F008E01168002041F82300013351688B4256
S31508000600F7D30832064B9A4201D20023F6E7FFF7E2
S31508000610FBFD00BFC4090108D0090108D00901087B
S31508000620D009010810B4144B144A9A60D3F88820EC
S3150800063042F47002C3F88820114A4FF4804191664B
S31508000640104901F500524FF0FF3010660E4850660B
S315080006500220C3F8D000BFF34F8FBFF36F8F0B484C
S315080006600124C0F880414FF44033D36004600B6125
S315080006705DF8044B704700BF00ED00E0000000087D
S3150800068000900050008000447FFF7F0100E100E0F9
S31508000690014B1868704700BF4809002008B5094B88
S315080006A01B6F03F00703022B04D0032B05D0012B85
S315080006B006D0FEE7FFF7ECFF03E0034B186800E0FF
S315080006C0024808BD0080005050090020002D310165
S315080006D008B5FFF7E3FF054B1B6FC3F3033301337D
S315080006E0B0FBF3F0024B186008BD00BF0080005055
S315080006F0440900200048704700B4C404014B186838
S31508000700704700BF5009002008B5064B1860064B15
S315080007101B6F03F00703032B00D008BDFFF7D8FFB4
S31508000720FBE700BF500900200080005000487047D2
S31508000730002D31014FF0B4439868C0F304400C28EB
S3150800074008D8DFE800F009070707070722181A077D
S315080007501C1E2000002070474FF0B4439B6803F02E
S315080007604073B3F1807F12D0B3F1007F11D003B18B
S31508000770704709487047094870470948704709484B
S31508000780704709487047094870470948704709483B
S3150800079070470948ECE700BF00093D000024F40053
S315080007A0C0EA210180BA8C010048E801005A6202B9
S315080007B0405DC60080841E0040420F00014B186849
S315080007C0704700BF4C090020F0B585B00C4694462A
S315080007D09DF83410664A1278002A00F0BD80054656
S315080007E0BCF1070F00F2BA800A9A002A00F0B88016
S315080007F00B9A002A00F0B6800E9AB2F5006F00F345
S31508000800B38001285BD05B4A02EB0C12127B002AEC
S3150800081000F0AC8000220092019202920392564A9E
S3150800082002EB4C1E002C4FD14FEA4C16002090517B
S31508000830CEF80400CEF80800CEF80C009EF80200A8
S3150800084040F010008EF802009EF8030040F03000D9
S315080008508EF8030021B9C1B241F003018EF80310E6
S3150800086000930E9B013B444A4FEA4C1002EB4C1195
S31508000870165A63F30E1616520A9B8B600B9B4B6037
S31508000880CB789DF83C2062F38303CB70012D36D0DC
S31508000890109B002B56D0374A4FEA0C1102EB0C136B
S315080008A010985050119A5A6000249C605D737246E5
S315080008B06946604601F044FF204605B0F0BD0C9A33
S315080008C0002AA0D12D48F8E72B4F4FEA4C1607EB24
S315080008D04C120020B85150609060D060907840F07B
S315080008E010009070D07840F00300D0700029B7D17E
S315080008F007EB4C12C1B241F03001D170B0E70E4699
S315080009000A7B42F001020A73D2B242F002020A736B
S31508000910CA68042161F39F02F26006F1100796E89F
S315080009200F0087E80F00F2696FF0030161F39F0279
S31508000930F2610C9B7361012CAAD10B9AB2610C9AD5
S315080009407260A5E7002DA6D10B4B03EB4C139A78E2
S315080009506FF304129A709EE70948AEE70748ACE7BA
S315080009600648AAE70548A8E70448A6E70548A4E70D
S31508000970BB140020740E0020740D0020018000F0C6
S31508000980028000F0078000F0134B1B78FBB110B50E
S315080009900446F0B109F038F90023072B13D80F4A9B
S315080009A002EB0312127B0AB10133F6E723600B4A06
S315080009B0190102EB031301241C730024545009F097
S315080009C029F9204602E009F025F9054810BD054831
S315080009D070470548FAE700BFBB140020740E0020D4
S315080009E0048000F0028000F0018000F038B509F0BC
S315080009F00BF904460023072B06DC0C4A02EB03120C
S31508000A00127B12B90133F6E7002222B1204609F01B
S31508000A1001F9074838BD01F035FE0025054B1D7064
S31508000A20204609F0F7F82846F4E700BF740E0020C0
S31508000A30058000F0BB1400200F4B1B78BBB110B526
S31508000A400446072815D809F0DFF80C4B03EB041306
S31508000A501B7B1BB909F0DEF809480BE0074B03EBD3
S31508000A60041300241C7309F0D5F8204602E0054853
S31508000A707047054810BD00BFBB140020740E002047
S31508000A80068000F0028000F0018000F000B583B017
S31508000A90134B1B68019300238DF8043009F0B4F852
S31508000AA0104B1B7833B90F4B01221A7009F0B2F8B4
S31508000AB0002309E009F0AEF80B480EE00B4A02EBFA
S31508000AC00312002111730133072BF7DD08238DF874
S31508000AD0073001A801F002FE002003B05DF804FB10
S31508000AE098AE0008BB140020038000F0740E0020A6
S31508000AF008B50A4B1B785BB107280BD8084B03EBE4
S31508000B0000131B7B43B1002101F0DAFD002008BD6C
S31508000B100448FCE70448FAE70448F8E7BB14002051
S31508000B20740E0020028000F0018000F0078000F0BB
S31508000B3008B50A4B1B785BB107280BD8084B03EBA3
S31508000B4000131B7B43B1012101F0BAFD002008BD4B
S31508000B500448FCE70448FAE70448F8E7BB14002011
S31508000B60740E0020028000F0018000F0078000F07B
S31508000B7008B50A4B1B7853B107280AD8084B03EB6C
S31508000B8000131B7B3BB101F025FE002008BD05487C
S31508000B90FCE70548FAE70548F8E700BFBB1400205C
S31508000BA0740E0020028000F0018000F0078000F03B
S31508000BB0114B1B78BBB1072817D8C1B10F4B03EBF4
S31508000BC000131B7BABB11F280AD80D4BDB6AC0B2DA
S31508000BD0C34013F0010F03D001230B7000207047A8
S31508000BE0002008707047074870470748704706484E
S31508000BF070470648704700BFBB140020740E0020DB
S31508000C0000000450028000F0018000F0078000F028
S31508000C10104B1B78ABB1072815D8B1B10E4B03EBB7
S31508000C2000131B7B9BB10D4B1B6D0122824013EAFF
S31508000C30020003D001230B700020704700230B70BD
S31508000C407047074870470748704706487047064880
S31508000C50704700BFBB140020740E0020000004502B
S31508000C60028000F0018000F0078000F00C4B1B7832
S31508000C7073B110B50C4607280CD869B1094B03EBBC
S31508000C8000131B7B53B101F0B7FD2070002010BD87
S31508000C90054870470548FAE70448F8E70448F6E7C0
S31508000CA0BB140020740E0020028000F0018000F0C2
S31508000CB0078000F0F8B5194B1F6D5B6D1F4002D415
S31508000CC00125002402E0FEE701346D00072C24D834
S31508000CD03D42F9D0124B1D652301124AD358002B09
S31508000CE0F2D002EB0416B1680131B1607268204691
S31508000CF0984780F00100C0B2737B012BE4D100282D
S31508000D00E2D0094B03EB44131A7B6FF341021A73C3
S31508000D101A7F6FF341021A77D6E7F8BD0000045030
S31508000D2000200450740E0020740D002010B50446EF
S31508000D3002E0202007E09047DCB194FAA4F00028EE
S31508000D40F7D0B0FA80F00123834024EA0304094B64
S31508000D5003EB00135A68002AEED0064B03EB001388
S31508000D601B7B002BE7D0034B03EB001399689047D6
S31508000D70E2E710BDF40E002008B51A2001F05EF86F
S31508000D8028B1084B4FF08062C3F880211A601B20F7
S31508000D9001F054F828B1034B4FF00062C3F88021E4
S31508000DA01A6008BD00E100E038B505460C4608F0B3
S31508000DB02BFF044B03EB05135C6000221A7308F043
S31508000DC029FF38BDF40E002008B5084BD3F82404D3
S31508000DD0D3F82024104000F0553020F0502003F5B9
S31508000DE00053C3F82004FFF7A1FF08BD00C0035055
S31508000DF008B5084BD3F82404D3F82024104000F093
S31508000E00AA3020F0A02003F50053C3F82004FFF70A
S31508000E108DFF08BD00C0035001460023032B08D8E8
S31508000E20054A52F8230090F821208A4202D001335D
S31508000E30F4E70020704700BFF410002090F8353022
S31508000E40022B01D000207047437F90F8212003EB46
S31508000E5043031B01143303495858D04000F00100DE
S31508000E60704700BF30C0035030B139B142B1B2F556
S31508000E70006F07D80020704703487047034870473B
S31508000E800248704701487047027000F0037000F08E
S31508000E90154B1B7853B9032B05D8144A002142F881
S31508000EA023100133F7E7104B01221A700023032B96
S31508000EB006D80E4A52F82320824212D00133F6E7AA
S31508000EC0002300E00133032B09D8084A52F82320EF
S31508000ED0002AF7D1054A42F8230000207047044843
S31508000EE070470020704700BFBC140020F410002093
S31508000EF0027000F010B50446FFF7C8FD002104F1A2
S31508000F000800FFF741FD30B9002104F10C00FFF796
S31508000F103BFD10B910BD0248FCE70148FAE700BFDF
S31508000F200E7000F0A0B110B5044690F832303BB10F
S31508000F3094F832300133DBB284F83230002010BD29
S31508000F40FFF77CFF0028F3D1A068FFF7D1FDEFE794
S31508000F5000487047027000F0C8B110B5044690F812
S31508000F603230B3B190F83230DBB2012B07D094F8A7
S31508000F703230013BDBB284F83230002010BDFFF777
S31508000F805DFF0028F3D1A068FFF7D2FDEFE702481E
S31508000F9070470248F2E700BF027000F0057000F0E3
S31508000FA010B582B0044690F83530022B04D0012BD8
S31508000FB034D0002002B010BD437E53B9837F90F829
S31508000FC022200121914003EB43031B01234AD15000
S31508000FD0EFE7012B0CD0037EABB9837F90F8222074
S31508000FE00121914003EB43031B011C4AD150E0E762
S31508000FF0837F90F822200121914003EB43031B01D4
S31508001000174AD150D5E7837F90F8222001219140D5
S3150800101003EB43031B01124AD150CAE7037E73B997
S3150800102011238DF80730FFF77DFF01220DF1070127
S31508001030204608F05BFB2046FFF78EFFB9E713232F
S315080010408DF80730FFF76EFF01220DF107012046E4
S3150800105008F04CFB2046FFF77FFFAAE740E0035065
S3150800106040D0035010B50446074990F82100FFF711
S315080010709BFEFFF781FE0023A37623760223637681
S315080010802046FFF78DFF10BDCF950008F0B58FB04D
S3150800109006460C460DF1180C804D0FCDACE80F0036
S315080010A095E80F008CE80F00002300930193029344
S315080010B0039304930593002E00F0EA803546002C2E
S315080010C000F0E88060221946304609F0D4FB236810
S315080010D03360022386F83630237C33713046FFF7B7
S315080010E0D7FE0646002859D1237F85F83530236870
S315080010F06B4A93420ED06B4A934252D06A4A934245
S3150800110040F0CA8058236B62684B2B614FF49013EA
S315080011106B6106E056236B62654B2B614FF48013B7
S315080011206B61002385F8313085F83030A26A616A30
S31508001130284608F0BBF901213A2000F05BFB0121A3
S31508001140686A00F057FB2379002B32D1594AD2F846
S31508001150203223F0070343F00103C2F82032227C31
S31508001160554B263203EB421210215160217BA07B9E
S31508001170227C41EA004103EB4212C2F8DC14627B8E
S31508001180E07B217C42EA004203EB4113C3F8D424F6
S315080011902146284608F074F90646C0B130460FB015
S315080011A0F0BD57236B62454B2B614FF488136B6177
S315080011B0B7E70121362000F01DFB3E4AD2F820325F
S315080011C023F0070343F00303C2F82032C7E70121DF
S315080011D0284608F07FF906460028DFD102238DF855
S315080011E02530A3680893638AADF82830A38AADF83A
S315080011F02630A37D8DF82430A3690B9301238DF83F
S31508001200063000238DF80730CDF834D008F0FCFC02
S315080012100746237F032B12D0022B30D006238DF8E6
S31508001220183023797BB306A9206808F047FD2846BD
S31508001230FFF760FE0646384608F0ECFCAEE7227C6F
S315080012401D4BA63203EB421202215160E17F94F84E
S315080012502000227C41EA004103EB421241F2D040D1
S315080012601150627FA07F217C42EA004203EB4113C2
S3150800127041F2CC415A5003238DF80030CEE7284678
S31508001280FFF7F0FECAE706A9206808F011FDCEE7C9
S315080012900B4E83E70B4E81E70A4E7FE7B8AE000890
S315080012A00000015B00000A5000400A5001001200CD
S315080012B0010010000080005000C00350010011001A
S315080012C0027000F0037000F0024B4FF480321A6788
S315080012D0704700BF0090005038B505460C46174BBE
S315080012E0D3F8200100F00700062823D8DFE800F02D
S315080012F0040A0E16121A1E00012305B1286004B14D
S31508001300236038BDFFF7C4F90523F6E7FFF7F6F9BA
S315080013100323F2E7FFF70EFA0723EEE7FFF706FACD
S315080013200223EAE7FFF7B4F90623E6E7FFF7E6F94B
S315080013300423E2E700231846DFE700BF00800050D9
S3150800134038B505460C46164BD3F8283103F0070383
S31508001350013B052B20D8DFE803F003131B0F0B17FF
S31508001360FFF796F9052305B1286004B1236038BD57
S31508001370FFF78EF90623F6E7FFF7DCF90723F2E70E
S31508001380FFF7BCF90323EEE7FFF7B8F90423EAE70A
S31508001390FFF7CCF90223E6E700231846E3E700BF88
S315080013A00080005070B582B006460D4600230193B2
S315080013B0104BD3F8804104F00304022C16D0032CFA
S315080013C00FD0012C07D000240EB1019B336005B164
S315080013D02C6002B070BD002101A8FFF77DFF0F2425
S315080013E0F2E7FFF7A7F901900724EDE7FFF79EF963
S315080013F00190E9E70080005038B505460C460C4BCD
S31508001400D3F8903203F00303012B05D0022B07D142
S31508001410FFF790F9072305E0FFF788F9022301E0B3
S315080014200023184605B1286004B1236038BD00BF03
S315080014300080005030B583B005460C460023019362
S31508001440154BD3F8203203F00703042B21D8DFE825
S3150800145003F0030B11161B0001230DB1019A2A6034
S3150800146004B1236003B030BD002101A8FFF768FF6F
S315080014701123F2E7FFF75EF901900723EDE707F07E
S31508001480DEFF01900A23E8E7FFF798F901900923A0
S31508001490E3E70023E1E700BF0080005038B50546C2
S315080014A00C46104BD3F8400100F00300032815D86A
S315080014B0DFE800F002080C10012305B1286004B12A
S315080014C0236038BD07F0BBFF0A23F6E7FFF776F976
S315080014D00923F2E707F0B6FF0B23EEE700231846C9
S315080014E0EBE700BF0080005030B583B005460C46D8
S315080014F000230193144BD3F8603203F00703013B32
S31508001500032B1FD8DFE803F0020E1914002101A8E7
S31508001510FFF7E2FE0F230DB1019A2A6004B123609A
S3150800152003B030BD002101A8FFF7B8FF1023F2E78A
S31508001530FFF700F901900723EDE7FFF7F7F80190A9
S315080015400223E8E70023E6E70080005030B583B0C1
S3150800155005460C46002301930C4BD3F8703203F072
S315080015600303012B09D0022B0DD114230DB1019AC7
S315080015702A6004B1236003B030BD002101A8FFF73B
S315080015808DFF1023F2E70023F0E700BF008000502C
S3150800159038B505460C46134BD3F8000200F0070091
S315080015A004281BD8DFE800F003090D1115000123F4
S315080015B005B1286004B1236038BD07F040FF0A234F
S315080015C0F6E7FFF7FBF80923F2E707F03BFF0B23E3
S315080015D0EEE7FFF77DF8800A0E23E9E700231846B1
S315080015E0E6E700BF0080005038B505460C46134BA9
S315080015F0D3F8080200F0070004281BD8DFE800F03B
S3150800160003090D111500012305B1286004B12360F3
S3150800161038BD07F014FF0A23F6E7FFF7CFF80923CA
S31508001620F2E707F00FFF0B23EEE7FFF751F8800A02
S315080016300E23E9E700231846E6E700BF00800050BE
S3150800164038B505460C46104BD3F8400200F00300A7
S31508001650032815D8DFE800F002080C10012305B1AD
S31508001660286004B1236038BD07F0E9FE0A23F6E7CF
S31508001670FFF7A4F80923F2E707F0E4FE0B23EEE7E9
S3150800168000231846EBE700BF0080005038B5054632
S315080016900C46104BD3F8600100F00300032815D858
S315080016A0DFE800F002080C10012305B1286004B138
S315080016B0236038BD07F0C3FE0A23F6E7FFF77EF876
S315080016C00923F2E707F0BEFE0B23EEE700231846D0
S315080016D0EBE700BF0080005038B505460C46104BB6
S315080016E0D3F8000100F00300032815D8DFE800F05E
S315080016F002080C10012305B1286004B1236038BD27
S31508001700FEF7FCFF0323F6E7FFF758F80923F2E78D
S3150800171007F093FE0823EEE700231846EBE700BF21
S3150800172000800050B0F5207F20D00ED8B0F5007F9D
S3150800173016D020D810B1B0F5C07F04D10F4B186F62
S31508001740C0F3033018E0002016E0B0F5607F05D13D
S315080017500A4BD3F88000C0F301100DE000200BE01F
S31508001760064BD3F89000C0F3046005E0034B186FEE
S31508001770C0F3802000E00020013070470080005050
S3150800178038B505460C46174B4FF480329A6600204A
S31508001790FFF7C8FF05FB00F0134BDA6902F4803245
S315080017A041F67131D9635B6823F440136CB90F496C
S315080017B0884207D800210B430B494B600AB1002227
S315080017C0CA6338BD4FF48011F5E7002C07DD0849D8
S315080017D0884201D80021EEE74FF48011EBE74FF479
S315080017E04011E8E70090005000000350005A6202DA
S315080017F0002D3101430905D0012B0DD0022B0DD048
S31508001800002200E0002200F01F0049B102F58052D4
S315080018100123834013607047034AF4E7034AF2E75B
S3150800182002F50052F4E700BF64800050688000505B
S3150800183008B5802007F0F8FF034B984203D8034BFE
S315080018404FF480321A6708BD005A620200A00050A1
S3150800185000B583B000230193B0F5807F00F039818D
S3150800186018D9B0F5086F00F03E8140F2DB80B0F57C
S31508001870306F00F04C8140F20281B0F5386F00F00D
S315080018802D81B0F5406F40F0E68001A90020FFF7F2
S3150800189057FDE0E0802800F2DE802428C0F0DB80D7
S315080018A024385C2800F2D78001A353F820F000BF43
S315080018B0651A0008651A0008651A0008651A0008FE
S315080018C0651A0008571A00084F1A0008571A000820
S315080018D0DD1A0008751A0008571A0008571A000872
S315080018E0571A0008571A0008571A0008571A000806
S315080018F0571A0008571A0008571A0008571A0008F6
S31508001900571A0008DD1A0008571A0008571A00085F
S31508001910571A0008391A0008FB1A0008571A00084F
S31508001920571A0008571A0008571A0008571A0008C5
S31508001930571A0008571A0008571A0008571A0008B5
S31508001940571A0008571A0008571A0008571A0008A5
S31508001950571A0008651A0008571A0008571A000887
S31508001960571A00089B1A0008571A0008571A000841
S31508001970051B00088B1A0008F11A00088B180008C6
S315080019808B180008571A0008571A0008571A000833
S31508001990571A0008571A0008571A0008571A000855
S315080019A0571A0008571A0008571A0008571A000845
S315080019B0571A0008571A0008571A0008571A000835
S315080019C0571A0008571A0008571A0008571A000825
S315080019D0571A0008571A0008571A0008571A000815
S315080019E0571A0008571A0008571A0008571A000805
S315080019F0571A0008571A0008571A0008571A0008F5
S31508001A00571A0008571A0008571A0008571A0008E4
S31508001A10571A0008571A0008571A0008571A0008D4
S31508001A20A51A0008B0F5C06F58D00AD9B0F5E06F0E
S31508001A3063D0B0F5F06F1AD101A90020FFF726FE92
S31508001A4009E0B0F5A06F53D0B0F5B06F07D101A982
S31508001A500020FFF7A7FC019803B05DF804FBB0F57A
S31508001A60806FF8D101A90020FFF736FCF3E7B0F53F
S31508001A70D06FF0D101A90020FFF78AFDEBE7B0F59A
S31508001A80206F3FD0B0F5286F04D101A90020FFF7D9
S31508001A905DFDE0E7B0F5106FDDD101A90020FFF785
S31508001AA0A3FDD8E71C4B1B6F03F00703013B032B71
S31508001AB0D1D8DFE803F00B02050805230193CAE72E
S31508001AC003230193C7E708230193C4E7022301937D
S31508001AD0C1E701A9002007F074FEBCE701A90020B0
S31508001AE0FFF7DCFCB7E701A90020FFF7F5FDB2E731
S31508001AF001A90020FFF79EFCADE701A90020FFF72A
S31508001B009FFDA8E701A90020FFF7EEFCA3E701A9BE
S31508001B100020FFF771FC9EE700800050044B4FF44D
S31508001B2080125A66034B4FF480329A62704700BFA0
S31508001B30009000500050005A38B504468020FFF740
S31508001B4087FE032800F0B580604B4FF480125A6672
S31508001B505F4B45F60E02C3F8802003F580524FF01E
S31508001B60A061916203F500534FF480329A62584B94
S31508001B709B6D13F4803FFAD1554B9B6D13F0804F44
S31508001B80FAD1226863681B0543EA0263227B43EAAB
S31508001B900243627B43EA0233A27B43EA8213E27B77
S31508001BA013434B4D2B61AB6903F00043226943EAAB
S31508001BB08263626943EA0263227E43EA0243627EE3
S31508001BC043EA0223A27E1343AB614FF400624FF44B
S31508001BD04061404807F013FE2B6A23F00F03E269C1
S31508001BE0002A46D111460B43E17E43EA81031A4394
S31508001BF0374B1A62E369002B3DD1354A916A364B59
S31508001C000B4094F8201043EA411394F8211043EA54
S31508001C10011394F8241043EAC10343F48033936212
S31508001C202B4B9A6D2D4B9343FAD1294A02F58051D5
S31508001C304FF080738B62136923F47003A06843EA3C
S31508001C40005313614FF000438B6194F822301BB99F
S31508001C50234B4FF080729A6294F8233013BB204BC3
S31508001C604FF480329A621A4B9B6D13F0804FFAD16B
S31508001C7018E00821B7E7022B1CD0154A916A164BC3
S31508001C800B4094F8201043EA411394F8221043EAD3
S31508001C90016394F8241043EAC10394F8231043EA35
S31508001CA00143936294F825301BB1094B0D4AC3F8DA
S31508001CB0802038BD064B00221A619A614FF40852FB
S31508001CC04FF47F41084807F09AFDD6E70090005088
S31508001CD00040005A3840005AC7FFFEFE03000100C4
S31508001CE00060005AF1A7FFFF3440005A014B93F9F0
S31508001CF000007047180A0020014B1880704700BF83
S31508001D000C0A0020B0F5207F48D02DD8B0F5007F0A
S31508001D1039D04CD810B1B0F5C07F24D110B54C1EBF
S31508001D2007F07BFD07F056FFFFF7CEFA204A136F40
S31508001D3023F4704343EA04331367FEF7C9FC1D4BCB
S31508001D40D3F8843013F0100FF9D11A4BD3F8841056
S31508001D50C1F38111C1F1020107F031FF00F02CF83F
S31508001D60FFF766FD10BD7047B0F5607F0AD10139EF
S31508001D700F4AD2F8803023F0300343EA0113C2F841
S31508001D808030704770470139094AD2F8903023F0FD
S31508001D90F85343EA0163C2F8903070470139044AA0
S31508001DA0136F23F4806343EA8123136770477047F0
S31508001DB0008000500040005008B54FF4C07007F08E
S31508001DC033FD054B984205D902214FF42070FFF7E1
S31508001DD099FF08BD0121F8E780F0FA0208B5FEF779
S31508001DE077FC0C4BD3F8843013F0100FF9D1094B5C
S31508001DF0D3F88410C1F38111C1F1020107F0DFFEA7
S31508001E000121002000F0A4F8FFF7D6FFFFF710FD28
S31508001E1008BD00BF00400050002807DB00F1604005
S31508001E2000F5614090F800030009704700F00F00C4
S31508001E30014B185C0009704714ED00E04209064B97
S31508001E4053F8223000F01F0023FA00F080F001005A
S31508001E5000F00100704700BF00E100E038B5EFF37D
S31508001E60108313F0010F1BD10446FFF7E7FF054661
S31508001E70B8B92046FFF7D0FF0446EFF3118313B134
S31508001E80B0EB131F0FD2094B5B68C3F3080343B1CA
S31508001E90103B58B2FFF7C0FFA04202D8012500E068
S31508001EA00125284638BD0125FBE700BF00ED00E007
S31508001EB0034AD36E23F0300301790B43D366704788
S31508001EC000400050F8B50446204BD3F8843013F090
S31508001ED0100FF9D11D4BD3F88430C3F381139C42FC
S31508001EE02DD0FEF7DBFB0646012C11D007F085FE48
S31508001EF00546164F07F500534FF000725A662046FE
S31508001F0007F08BFE621E4FF4806393403B6706E042
S31508001F10012107F054FEE9E70C4BD3F884300B4B4C
S31508001F205B6E13F0007F05D1084BD3F8843013F0AD
S31508001F30200FF1D0284607F064FE022C00D0F8BD29
S31508001F400021304607F03BFEF9E700BF004000508D
S31508001F5010B50C46034650B1094A127812B1094A1F
S31508001F60934208D921460220FFF7ACFF10BDFEF7C1
S31508001F7095FB0346F0E721460120FFF7A3FFF5E7A7
S31508001F8004110020005A620238B52F4B4FF0004268
S31508001F905A6603F50B235C6C04F001044AF6CD324D
S31508001FA01A64E8B9294B5B6B13F00103FAD1274A87
S31508001FB0556815F0010539D002F500520121516026
S31508001FC01A462249096B11F0010F04D120498A42A9
S31508001FD001D80132F5E71E498A422FD81D4625E069
S31508001FE000231A4A126B12F0080F04D0184A9342BB
S31508001FF001D80133F5E7164A934221D8134B03F566
S3150800200000522021916203F5805301225A60002371
S3150800201000E001330D4A926A12F0200F02D10C4AF1
S315080020209342F6D90A4A93420CD8002514B1074BB5
S31508002030084A1A6408F019FA284638BD0725F5E74C
S315080020400725F3E70725F1E70090005000400950FF
S315080020503F420F003254FFFF10B51A4B4FF00042B3
S315080020605A6603F50B235C6C04F001044AF6CD327C
S315080020701A6443785B0043F00103134AD363134B96
S315080020805B6B13F00B0FFAD1104A536823F4F873FD
S31508002090817843EA01135360C178437943EA0123FF
S315080020A093600179837943EA012313610078FFF786
S315080020B06BFF14B1054B064A1A6408F0D6F90120DD
S315080020C010BD00BF0090005000400050004009506D
S315080020D03254FFFF10B50F2800D90F20124B5C6E43
S315080020E003F580534FF000425A6603F50B235A6CEA
S315080020F002F001024AF6CD3119640C4B5B6B13F002
S31508002100800FFAD109490B6A23F00F0303430B62C8
S315080021100AB1074A0A64002C03DB064B4FF000425B
S315080021205A6608F0A2F910BD008000500040095018
S315080021303254FFFF00A0005010B5134B5C6E03F538
S3150800214080534FF000425A6603F50B235A6C02F08F
S3150800215001024AF6CD3119640C4B5B6B13F0800F04
S31508002160FAD10A490B6A23F4F85343EA00230B62AF
S315080021700AB1074A0A64002C03DB064B4FF00042FB
S315080021805A6608F072F910BD0080005000400950E8
S315080021903254FFFF00A00050084B98420AD0084B63
S315080021A0984209D003F58043984201D00020704731
S315080021B05820704756207047572070470000015B2B
S315080021C000000A5010B5044607F028FD042307E06E
S315080021D004F5805304221A6104F500531A610B466C
S315080021E0591E002BF4D1202323610023E360A3604A
S315080021F041F202026261A3614FF4A0226262E361C6
S315080022002362A362E3626363236504F5005202490D
S31508002210D164236310BD00BFFF3F0D03F8B5044624
S3150800222015460846E1B1A36813F0010F34D0666875
S31508002230B0FBF5F0451E16F001062BD0636D13F0C2
S31508002240280FFBD1A36C13F0030F0FD1A36C13F067
S31508002250010F1BD1A36C13F0020F19D1002706E05A
S315080022602046FFF799FF07F0DFFADCE70527204647
S3150800227007F0D4FC236923F07F4343EA056323610F
S3150800228046B33946204607F0E8FC23E00927EEE77F
S315080022900627ECE70027EDE76368A36803F0E00389
S315080022A0402B1DD017D9602B1ED0802B12D10123AD
S315080022B0400105FB03F3B0FBF3F020380B4A02EAB2
S315080022C0C002636D13F0010FFBD12263636D13F037
S315080022D0010FFBD1F8BD2BB1202BFBD10823E7E773
S315080022E00623E5E71023E3E70423E1E7F8FF7F0089
S315080022F070B504460D461646436823B1636DC3F3AD
S315080023000B03002BFAD12046FFF75CFF636923F421
S315080023104C5323F00F036A7B1343EA8913432A8A33
S3150800232013436361A36823F0804323F0E2032A7B07
S3150800233013432A7E13436A691343A360AB681BB928
S31508002340A36843F00043A360EA69002A70D0A16835
S31508002350694B0B40117A43EA8153917A43EA414328
S31508002360918801F4C0410B43517843EA8103517BBC
S3150800237043EAC103917B43EA0113927843EA822335
S31508002380A360E2685D4B1340EA6911690B43516922
S315080023900B43917943EA8123D27943EA4223E360E6
S315080023A0EB691B78012B01D0032B03D1E36843F0BB
S315080023B00403E360EB691B78023BDBB2012B51D9BE
S315080023C04F4B9C426BD04F4B9C426AD003F58043DF
S315080023D09C4262D04FF0FF3303F593735B0103F120
S315080023E0A04303F5703302225A60EB695A7A04F562
S315080023F080539A62EB695B7A1BB1E36843F4006326
S31508002400E360EB69DB7A63B1E36843F40043E360B6
S315080024103B4B9C4247D03B4B9C424BD03A4B9C4251
S315080024204FD0636A23F00303EA69D27B13436362DE
S315080024303EB196F82030002B4AD004F5805301228D
S315080024401A620521204607F008FCAA68002A4ED120
S315080024502978204607F001FCA36CDB4313F4405FA0
S31508002460FAD170BD264B9C4213D0264B9C4212D003
S3150800247003F580439C420AD04FF0FF33A6335B0135
S3150800248003F1A04303F5703302225A60ADE7022335
S31508002490F4E70023F2E70123F0E702239CE7002391
S315080024A09AE7012398E7EB691B7B03F00F03174AAA
S315080024B05366B0E7EB691B7B03F00F03134A1367F8
S315080024C0ACE7EB691B7B03F00F03104AD367A8E759
S315080024D0E36923F0090396F82220134396F821208E
S315080024E0134343F0010304F58052D361A9E76968F1
S315080024F02046FFF793FEABE7E39BBDFFFFF9F087A6
S315080025000000015B00000A5000400A50009003508A
S315080025102DE9F8430D4614461E469DF820809DF881
S315080025202470072A29D8930000FA03F20321994058
S31508002530214807F0C9FB4FF00009072C29D8A1004C
S3150800254005F003028A40032303FA01F11B4807F04A
S31508002550BBFB5EB31A4A0123A3401360B8F1000F10
S3150800256026D0184A13600122A2401749C1F8202430
S3150800257007B3164A1360BDE8F883A2F108094FEAC3
S31508002580890300FA03F203219940114807F09CFBDE
S31508002590D3E74FEA890905F0030202FA09F2032193
S315080025A001FA09F10B4807F08FFBD2E70A4AD2E78E
S315080025B00A4AD7E70A4ADDE700C4035008C40350AD
S315080025C010D4035014D4035000E0035024D403500D
S315080025D004C403500CC4035010E4035014E403501D
S315080025E024E40350F8B504460D461E4617463AB18C
S315080025F0FBB101228A4000EB400109011D4B5A50EC
S31508002600072D1ED8A90004EB44031B0107FA01F2A3
S315080026100F2000FA01F11848184407F055FB3FB996
S31508002620FEB10122AA4004EB44042401114B1A51BD
S31508002630F8BD01228A4000EB400109010F4B5A50B0
S31508002640DEE7A5F108039B0004EB440C4FEA0C1CDB
S3150800265007FA03F20F2199400948604407F034FB52
S31508002660DDE70122AA4004EB44042401034B1A5176
S31508002670DEE700BF40D0035034C0035040E00350AB
S315080026803CC0035010B50C4B4FF48002C3F88020B1
S31508002690BFF34F8FBFF36F8F084B00245C65FF2293
S315080026A09A625C6021462020FFF7A4F82146212083
S315080026B0FFF7A0F810BD00BF00E100E000000450DD
S315080026C029B9044A012303FA00F010607047024A48
S315080026D0F8E700BF401004504020045010B50446E7
S315080026E001212020FFF786F801212120FFF782F833
S315080026F0114B01225A60227812069A606178A278F4
S3150800270042EA01429A61FF229A6200229A631A6497
S315080027104FF000425A6503F500534FF0FF321A6531
S31508002720064A4FF48001C2F88011E3781B01DBB238
S3150800273082F81633116010BD0000045000E100E075
S3150800274070B50C46C3B201259D40214E06F50053CF
S315080027501D650968830003F1A04303F588235960C2
S31508002760637B00EB400106EB01110B6694F80AC087
S31508002770E37A1B0543EA0C4394F80CC043EA4C532E
S31508002780CB6522F003020A6707F03EFA736D2B4306
S315080027907365237A13B1336C2B433364637A1BB1A5
S315080027A00B4A936B2B4393632379A27942EA03423C
S315080027B0074B03F500518A616679E27942EA0642D7
S315080027C003F58054A2614D639D6407F023FA70BD3A
S315080027D00000045010B5C0B20124844007F014FA72
S315080027E0044B5A6D22EA04025A659C6207F012FAF3
S315080027F010BD00BF0000045010B5C0B201248440CB
S3150800280007F002FA084BDB6A234205D1064B5B6BDD
S315080028109C4306D0002400E0002407F0FBF920467C
S3150800282010BD0124F9E700BF00000450074B4FF420
S3150800283080325A6603F5E6239B69C3F385128270D4
S3150800284003F03F0242701B0B037070470090005064
S31508002850074B9B6813F0020FFAD1054B5B6813F020
S31508002860020FF5D1024BDB69002BF1D1704700BF8F
S3150800287000800A50064B5B6813F0010F03D0044B27
S31508002880DB69002BF6D1024B02221A61704700BFA2
S3150800289000800A5008B5FFF7DBFF034B03F58051AC
S315080028A001224A601A6108BD00800A5008B5054B26
S315080028B05B68012B00D008BDFFF7DCFF024B012245
S315080028C05A60F8E700800A5000A00A5010B504467E
S315080028D0FFF7BEFF084B5B68012B05D0237843B191
S315080028E00122054BDA6010BDFFF7E0FFFFF7B0FFE6
S315080028F0F4E70022F5E700BF00800A50D8B90B7844
S31508002900D3B101234A6812B1127843EAC2034A785E
S31508002910A2B1022213438A6812B1127843EA8213DB
S315080029208A786AB104221343CA6812B1127843EA54
S315080029304223044A936470470023E3E70022E9E749
S315080029400022F0E700800A5008B9014B5964704725
S3150800295000900A5008B9014B5964704700A00A5004
S3150800296008B9014B1964704700A00A5010B9024B08
S31508002970186C70470020704700800A5048B911B19A
S31508002980012903D07047044BD86C7047024B186D69
S3150800299070470020704700BF00800A5040B911B147
S315080029A0012903D07047034BDA647047014B1A6557
S315080029B0704700BF00800A5038B5044607F068FD26
S315080029C0064DA446BCE80F000FC5BCE80F000FC5AE
S315080029D09CE8030085E80300002038BD08110020A4
S315080029E047F6FF739A427DD009297DD870B5414BC9
S315080029F013F801E0BEF1030F78D83F4B03EBCE0185
S31508002A0091F802C0604613F83E30012B26D03A4BA7
S31508002A1003EBCE035C68002C6AD0B4F9003093420D
S31508002A2004DBB4F90230934200DC1346A288FF2A7D
S31508002A302CD000212826C8221D46D21A92FBF6F26F
S31508002A400A4412B22C4B03EBCE0393F801E09645E9
S31508002A5001DD002A2FDA0EF1FF322CE0CB78A3EB4A
S31508002A600C0300249C420ED2191BA3EB51012248E9
S31508002A7000EBCE00406830F91100904201DC0C46AC
S31508002A80F0E74B1EEEE76344D8B230E0B4F906200F
S31508002A90B4F908600121CFE75C331849A1FB031399
S31508002AA09B09013212B2164696450FDD04EBC201A8
S31508002AB0898899420AD304EBC2018B68B1F90610DA
S31508002AC001FB0533002BE7DA0023E5E7013E04EBBB
S31508002AD0C604A2889A4200D31A46624500D3104615
S31508002AE0C0B204E0FF20704700207047002070BD88
S31508002AF00020FCE7D8AE000808110020D34D62106C
S31508002B0009296FD83A4B5B5C032B6DD8394911F804
S31508002B10331001292AD010B4364901EBC3014C6899
S31508002B20002C63D0201D334901EBC30189789142FB
S31508002B3034D2304901EBC301C978914233D92D49C2
S31508002B4001EBC30393F801C00CF1FF3C5FFA8CFC60
S31508002B50A388FF2B2AD00023634529D2591C30F8B5
S31508002B603110914224D30133DBB2F5E7214901EB59
S31508002B70C301C978914200D20A461E4800EBC30039
S31508002B808078121AD2B2091A8A4200DD002219493F
S31508002B9001EBC3035B6833F912007047B4F902000E
S31508002BA05DF8044B7047B4F90000F9E70123D3E751
S31508002BB04FF47A7101FB02F200EBC3004368D31AA3
S31508002BC0B0F9022002EBD27103EB610393FBF2F337
S31508002BD0B4F900009842E3DBB4F902009842DFDC5E
S31508002BE018B2DDE704487047034870470248D7E73C
S31508002BF0D8AE0008081100200080FFFF08B503487A
S31508002C00FFF7DAFE012007F066FC08BDE4AE00080F
S31508002C1030B583B0044607F060FC08B103B030BD98
S31508002C206946204607F036FC00B1FEE79DF80030FD
S31508002C30124A12789342F1D00E2B06D164250F4919
S31508002C40204607F014FC28B1FEE7204604F060FB96
S31508002C500546F4E72946204607F01EFC00B1FEE7C4
S31508002C60064B1B780A2BD9D16946204607F012FC79
S31508002C709DF80020014B1A70D0E700BF54090020C8
S31508002C8070B58AB004460D4628220021684607F02A
S31508002C90F2FD032300934FF41653ADF806300222D3
S31508002CA08DF8082001238DF809308DF80A208DF853
S31508002CB00B30642303934FF47A73069369462046D0
S31508002CC004F076FB0646C0B90C3D102D7CD8DFE82B
S31508002CD005F0091B21272D33393F454B51575D63B5
S31508002CE0696F75003949204607F029FC06462EB952
S31508002CF0FF21204607F05CFC064616B1204607F081
S31508002D0037FC30460AB070BD3149204607F017FC3B
S31508002D100646ECE72F49204607F011FC0646E6E78B
S31508002D202D49204607F00BFC0646E0E72B492046CE
S31508002D3007F005FC0646DAE72949204607F0FFFBB7
S31508002D400646D4E72749204607F0F9FB0646CEE7AC
S31508002D502549204607F0F3FB0646C8E723492046DF
S31508002D6007F0EDFB0646C2E72149204607F0E7FBD8
S31508002D700646BCE71F49204607F0E1FB0646B6E7CC
S31508002D801D49204607F0DBFB0646B0E71B492046EF
S31508002D9007F0D5FB0646AAE71949204607F0CFFBF8
S31508002DA00646A4E71749204607F0C9FB06469EE7EC
S31508002DB01549204607F0C3FB064698E713492046FF
S31508002DC007F0BDFB064692E7012697E72CB20008F6
S31508002DD02CB100086CB200080CB20008CCB100088F
S31508002DE06CB10008ACB100084CB10008ECB10008A1
S31508002DF08CB100084CB200080CB10008ECB0000811
S31508002E00CCB00008ACB000088CB000086CB0000864
S31508002E1000B587B0002301930293039304930593A7
S31508002E20044B029301A94FF0FF3007F07EFB07B071
S31508002E305DF804FB006A180000B583B0094B93E8F7
S31508002E4003000090ADF80410090C8DF806106846CA
S31508002E50FFF702F90920FFF73DF9002003B05DF8F6
S31508002E6004FB00BF3CB0000810B582B0074A536F98
S31508002E7043F001035367002400948DF80440684624
S31508002E80FFF716F8204602B010BD00BF00400050FC
S31508002E9010B58AB0EC461B4C0FCCACE80F000FCC33
S31508002EA0ACE80F0094E803008CE80300164BD3F84F
S31508002EB04C3113F4002F07D0144B1C884FF6FF73C0
S31508002EC09C4205D18C2403E00F4BD3F85041E4B261
S31508002ED08DF81940FEF70AFF241803D4FF2C02DDEB
S31508002EE0FF2400E000248DF818400948FDF70CFC83
S31508002EF06846FEF721FE3220FEF7FEFE00200AB0E5
S31508002F0010BD00BF44B000080080E00F0001E00FCC
S31508002F10C01753026FF0040307E003F00F010A4AD3
S31508002F200A445021117601335BB24B2B09DC002B86
S31508002F30F3DB03F1604202F56142502182F8001387
S31508002F40F1E70020704700BFFCEC00E010B504462E
S31508002F5006F053FE024B1C6006F053FE002010BD1F
S31508002F603011002010B506F048FE034B1C6806F029
S31508002F7048FE204610BD00BF30110020F0B58DB0C8
S31508002F8016461C46129D0023069307930893099339
S31508002F900A930B9323790BB18DF8183001238DF81A
S31508002FA01E3006ABF361637993B10123049303934F
S31508002FB07A4B02937A4B019300230093794B0A4686
S31508002FC0294600F0D3F9074620B138460DB0F0BDC2
S31508002FD00223EBE7A368EB63E369EB64237E85F8DA
S31508002FE0483063696B64237C85F84030636A6B6597
S31508002FF094F8203085F85030E36AEB6594F8283069
S3150800300085F858302368AB6301213A20FEF7F2FBB6
S31508003010012304226169207CFFF7E4FA01230222D6
S31508003020E169207EFFF7DEFA0023337085F8603009
S315080030300121A068FEF7DEFB6379002B41D05A4ACE
S31508003040D2F8283123F0070343F00103C2F82831E8
S31508003050A368562B02D0B3F5A06F08D1524AD2F80E
S31508003060203223F0070343F00103C2F82032314629
S31508003070206806F01DFE95F8603043F0040385F8D5
S315080030806030E268494B263203EB42121021516048
S31508003090217C6069E26841EA004103EB4212C2F80A
S315080030A0DC14227EE069E16842EA004203EB411340
S315080030B0C3F8D4242379032B6ED8DFE803F0511A1A
S315080030C0414901213620FEF795FBA368562B02D00D
S315080030D0B3F5A06F08D1344AD2F8203223F007039B
S315080030E043F00303C2F820323146206806F0E6FDB5
S315080030F0C7E795F8603043F0010385F8603000268D
S3150800310000230222616A94F82000FFF76BFA94F80C
S315080031102020616AE36842EA01425B0103F1A043A9
S3150800312003F5703341F2CC415A50DEB9AB6B03F567
S31508003130805304221A650521206806F08EFD44E7AF
S3150800314095F8603043F0020385F860300126ECE715
S3150800315095F8603043F0030385F860300126CFE721
S315080031600026E2E700230422E16A94F82800FFF724
S3150800317039FAE3680D4AA63302EB43130221596074
S3150800318094F82830E06AE16843EA004302EB41120A
S3150800319041F2D0415350C9E7232716E7299D000875
S315080031A0A59D0008D99D00080080005000C0035066
S315080031B0002807DB00F01F02400901239340024A5A
S315080031C042F82030704700BF00E100E000280CDB21
S315080031D000F01F024009012393402030034A42F8B9
S315080031E02030BFF34F8FBFF36F8F704700E100E0C9
S315080031F010B586B01446137A03EB43031B0103F19B
S31508003200A04303F58023DA6EE16823690B449A42EA
S3150800321016D06169914215D38B1AABB9012363762F
S3150800322094F82D304BB1002384F83530E369132127
S3150800323020469847636A20469847002006B010BD86
S315080032400A46E6E79B1AE8E7049406490391002133
S3150800325002910193012300936368216806F0F5F84B
S31508003260EBE700BFF131000838B504460568FFF7FB
S3150800327079FE844222D095F93630002B08DB03F01C
S315080032801F015B0901228A4060330E4941F8232059
S3150800329095F93600FFF79AFF287AFDF769FC287A30
S315080032A0FDF7CAFBFDF7A2FB002323606360A3605A
S315080032B023616361AB6A2846984738BD0020FFF74B
S315080032C045FED8E700E100E030B589B004460023A2
S315080032D04376007AFDF70CFC207A00EB40031B01CD
S315080032E003F1A04303F58023DA6EE56823692B44CE
S315080032F09A4219D06369934218D0012323760DF1B7
S315080033001F01FDF7B3FC9DF81F3043B30DF11E01F5
S31508003310207AFDF77DFC9DF81E3003BB224600216E
S31508003320207AFFF765FF1AE02A46E3E700232376AB
S31508003330656194F82D3003B12563636A2046984782
S3150800334023690494084A03920022029201930123F6
S31508003350009363682A462168207A06F076F8207A70
S31508003360FDF7E6FB09B030BDF1310008F0B587B0CE
S3150800337006460C4615461F4638220021204607F009
S315080033807AFA95E8030084E8030000232376EB68BD
S31508003390E3602A69226163612A7D84F82C20AA7D6C
S315080033A084F82D202363012384F8343084F83530DB
S315080033B0E7610C9B23620D9B63620E9BA36295F9E2
S315080033C0083084F836303460214B7360214BB36083
S315080033D0214B3361214B7361214BF360FDF756FB9B
S315080033E010B1204A90422DD1002104F10800FDF7C2
S315080033F0CBFA48BB236904941B4A03920022029223
S315080034000193012300936368E2682168207A06F035
S315080034101CF80446D0B995F90830002B08DB03F0F0
S315080034201F015B0901228A406033104941F82320B5
S3150800343095F90800FFF7BCFE3046FFF787FD2046E2
S3150800344007B0F0BD1024FAE71024F8E71024F6E7D1
S315080034504F9F000845A00008779E00087D9E00083B
S3150800346069320008038000F0F131000800E100E04D
S31508003470BFF34F8F0549CA6802F4E062044B134351
S31508003480CB60BFF34F8F00BFFDE700BF00ED00E044
S315080034900400FA05BFF35F8F074B5A6A22F480329D
S315080034A05A62D3F8942022F00102C3F89420BFF39D
S315080034B04F8FBFF36F8F704700ED00E070B5FFF7D1
S315080034C0E9FF234C234EB4423ED026F01F05203D8B
S315080034D0A0220021204806F0CEFDB5F1005F0DD3ED
S315080034E01E490B6845F001051D4AC2F898301D486B
S315080034F0C2F89C00C2F8A05001330B60B44210D049
S315080035001F3424F01F0444F0030414490B68144ABA
S31508003510C2F89830C2F89C401348C2F8A00001339C
S315080035200B60BFF35F8F0E4B0522C3F894205A6ACF
S3150800353042F480325A62BFF34F8FBFF36F8FBFF3E7
S315080035404F8FBFF36F8F70BD4FF08045C0E700BF48
S31508003550200A0020200A002090ED00E03411002007
S3150800356000ED00E003000020E1FFFF3F4161114B41
S315080035701B68CBB110B4002403E0891A41611C46CC
S315080035809B6823B15A698A42F7D9002AF5D044B113
S31508003590A060836013B15A69521A5A615DF8044BE8
S315080035A07047044A1060F4E7024B186000238360F2
S315080035B0704700BF401100200E4B1B68002201E037
S315080035C01A469B680BB18342FAD183420ED14AB19F
S315080035D08368936083685BB15A6941690A445A6192
S315080035E0002070478268034B1A60F3E70220704791
S315080035F000207047401100200A4B1B6800220A4928
S315080036000A7005E0084B01221A70704759690A4486
S31508003610012A06D8D98811F0020FF3D19B68002B2E
S31508003620F4D1704740110020BE14002008B500F000
S3150800363053F90B4B1B680B4A1268821A03E0521A9D
S31508003640002159619B683BB132B159699142F6D361
S31508003650891A59610022F5E7024B186008BD00BFB8
S31508003660401100203C11002010B50B4B1B685B690C
S315080036705BB10A4A14681C44022006F022FD204663
S3150800368000F038F9FFF7B8FF10BD022006F019FD63
S31508003690022000F085F9F5E7401100203C110020D2
S315080036A010B506F0B1FA0446144B1B78DBB9144A78
S315080036B01360144A1360144A138000F0D1F80120ED
S315080036C006F0FFFC06F02BFD0246104B186078B199
S315080036D000230F4840F2E73105F084FC0D4B1860D3
S315080036E0064B01221A70204606F094FA002010BDF7
S315080036F0204606F08FFA2320F9E700BFBF14002002
S31508003700401100203C1100209C1400204411002088
S3150800371018FCFFFF381100202DE9F843044610F085
S31508003720010F04D114F0020F10D1BDE8F883494AFD
S3150800373013889BB201339BB21380FFF777FF464B82
S315080037401B68002BEED0FFF78FFFEBE706F05CFA5D
S315080037500546FFF76BFF00273E4643E09B683BB1F3
S315080037605A692AB921791A799142F7D91C46F5E797
S31508003770284606F04FFA2569002D3AD10025A846B5
S315080037802F46002D46D0236903B3FDB9B8EB0707CA
S31508003790A38B6BB1E28B13449BB2E383B3F57A7FB9
S315080037A006D3A3F57A73E383013FA369013BA361BB
S315080037B006F02AFA054639462046FFF7D7FEA369DA
S315080037C022691344A361284606F024FAE7880136DD
S315080037D0E36813B121682046984706F015FA0546AE
S315080037E0FFF724FF1C4B1C68F4B16369E3B9234651
S315080037F0B5E7A84600F070F8A369C71AFA17AF42EA
S3150800380072F1000204DB22691344A3610125B8E7BB
S315080038100025B6E706F0F8F981462046FFF7CCFE04
S31508003820484606F0F7F9AEE70C4B00221A70012E4F
S3150800383006D05CB1FFF718FF284606F0EBF974E7E7
S3150800384017F0020FF5D001221A70F2E7022000F0F5
S315080038508BF8F1E79C14002040110020BD140020CD
S3150800386010B586B000248DF8144001218DF8041097
S315080038708DF805408DF806400294039404943E2082
S31508003880FDF7B8FF05A8FFF721F88DF8044001A950
S315080038902046FFF733F80F212046FFF75BF80F2184
S315080038A02046FFF75DF8FEF7F5FF094B5B6813F056
S315080038B0010F03D0064BDB69002BF6D1044B00221F
S315080038C09A61044B4022C3F888219A6006B010BD5D
S315080038D000800A5000E100E0054B5B6813F0010F19
S315080038E003D0034BDB69002BF6D1014B986970476F
S315080038F000800A50F8B5044606F07FF90646FFF739
S31508003900EBFF054606F0D7FB07460020FFF72EF823
S3150800391010F0020F04D17B1B032B01D8BD420FD137
S31508003920631B022B00D8EC1CB4F1FF3F2CBF2246C8
S31508003930621E00210846FFF731F8022006F0C1FB97
S31508003940304606F05EF9064B1B783BB1054A936C88
S3150800395043F001039364024B00221A70F8BD00BFBE
S31508003960190A002000800A5008B510F0010F11D17D
S31508003970002110F0020F09D041F00201064B012286
S315080039801A70064A936C23F0010393640020FEF72D
S31508003990E1FF08BD0121ECE7190A002000800A5062
S315080039A010F0020F02D0024B02221A64704700BFC1
S315080039B000900A5010B50A460446A1B10E4A0F49AE
S315080039C00F4801F08BF94FF054320E4BC3F8D8204C
S315080039D0552283F8DE20FF22A3F8DC20802283F814
S315080039E0E3204FF401524FF40151204603F002FA46
S315080039F003F01EFA002010BD54B300085CB300089B
S31508003A0024B30008003E00B007B50C4AA2F8DC1043
S31508003A10437D0C3B052B4FF000030DD901938DF820
S31508003A200410D2F8D83069461BBA0522009304F070
S31508003A3029FA03B05DF804FB1846FAE7003E00B021
S31508003A401FB50E4BC3F8D81083F8DE20427D09BA9D
S31508003A500C3A052A89BF00220422B3F8DC30CDE9E6
S31508003A600212019185BF052202A90DEB02018DF80C
S31508003A700C3004F007FA05B05DF804FB003E00B010
S31508003A802DE9F04F894647F6FF75097F89B0122957
S31508003A9028BF00210392019003F020FE4FF0000E8C
S31508003AA099F81C30F3460693069A019BF0465A7518
S31508003AB0874B884A1D805269874B884C5A6109F1A1
S31508003AC0170305936FF01F03A3EB0903CDF810E066
S31508003AD00793059B13F801AFBAF1040F059304D0B9
S31508003AE059F82B30029301335AD14FF0FF33E38153
S31508003AF023820023C4E9003323764FF00003638250
S31508003B000BF1010BBBF1040F04F124040EF1240E92
S31508003B10DFD1B8F1000F01D06D4B1D80704B049AB0
S31508003B2083F8E520069A83F8DF2099F81D309B076D
S31508003B300DD56A4B6B4A196891420BBF6A4A6B4AA4
S31508003B401A601A600CBF6A4A6A4A52695A61039B2C
S31508003B5061490198002B00F0B48003F005FA604B28
S31508003B60019893F8DE20D3F8D810B3F8DC50FFF7A5
S31508003B7067FF044620B929460198FFF745FF044622
S31508003B8099F81D204FF4002112F0010218BF4FF4D6
S31508003B900022019803F02EF9204609B0BDE8F08FFF
S31508003BA0079B059A33F91270039B002B69D0BAF16B
S31508003BB0020F1CD0BAF1030F36D0BAF1010F49D162
S31508003BC0A446BD42C8BF3D464B4E039B7644C8BF7C
S31508003BD098460FCEACE80F000FCEACE80F0033685E
S31508003BE0CCF80030029B67826360102315E0A44678
S31508003BF0424EBD4276440FCEACE80F000FCEACE87D
S31508003C000F003368C8BF3D46CCF80030029B678278
S31508003C106360039BC8BF98460123049A03FA0BF313
S31508003C201A43D3B204936BE7A446354E039BBD42B1
S31508003C307644C8BF98460FCEACE80F000FCEACE866
S31508003C400F003368C8BF3D46CCF80030029B678238
S31508003C50636055E7A4462B4BBD4253F82A309E684D
S31508003C6076440FCEACE80F000FCEACE80F003368F1
S31508003C70CCF80030029B6782636025DC2F463D4600
S31508003C803EE7A4461F4BBD4253F82A30C8BF3D46FF
S31508003C909E68C8BF4FF0010876440FCEACE80F0007
S31508003CA00FCEACE80F003368BAF1020FCCF800303B
S31508003CB0029B67826360AFD0BAF1010F7FF420AF31
S31508003CC093E706F05FFB4AE7DDF80C80D7E700BF0D
S31508003CD00E0A002034EA00085C090020481100207A
S31508003CE0003E00B0F4FC00083CF8000884F3000825
S31508003CF044EC00086CEB0008DCEA0008B4EB0008AA
S31508003D004CEA000874090020FF28074B09BF0A6817
S31508003D1051F82020C3F878224A6818BFC3F87822D9
S31508003D20C3F87C22704700BF004001B8144BFF2837
S31508003D301870144A144B09D11821C2F8FC13102222
S31508003D40C3F8FC23114BD3F874320DE0C043182195
S31508003D50C00000F00800C2F8FC13C3F8FC030028F2
S31508003D60F0D10A4BD3F8783240F2FF31054AC3F353
S31508003D700903C2F80C11A2F58052C2F80C3170473B
S31508003D80C0140020002002B8001002B80080E00F1E
S31508003D90014B1878704700BFC01400204FF03A4313
S31508003DA0D3F81421D2031ED54FF480320E49C1F838
S31508003DB01421A1F58051C1F818215A6DD1B2C2F368
S31508003DC00722C3F8A410C3F8A4200422C3F8A42029
S31508003DD00022C3F8A420C3F8A420C3F8A420C3F87B
S31508003DE0A420C3F8A4207047002000BA054B01227E
S31508003DF018604FF03A435A6740F6FF72D96418655F
S31508003E001A677047DC1100202DE9F04105460124A8
S31508003E10006800F00700063004FA00F3A868EC68AA
S31508003E205E1EA04262D000EA060E6C6810441E436D
S31508003E300640A3EB0E000EEB040C8242644618D92A
S31508003E40D31A0EEB030298B1431E052B04D94B1C5B
S31508003E50ACEB0303022B59D80B460844ACEB010E16
S31508003E6003EB0E0113F8014B83420C70F8D101469F
S31508003E706C688AB1531E052B01F1010302D9E01AB9
S31508003E80022812D80A44611E00E0013313F8010C17
S31508003E90934201F8010FF8D105F0AFFE0223AE6098
S31508003EA0AB62BDE8F04105F0ACBE0B46204622F0F9
S31508003EB0030E8E4453F804CB734540F804CBF9D16E
S31508003EC022F00303D01A920701EB030C04EB030755
S31508003ED0E2D0CA5C0128E254DED09CF80130022800
S31508003EE07B70D9D09CF80230BB70D5E7042A35D947
S31508003EF00878043AA86148780431A86111F8020CD8
S31508003F00A86111F8010CA861A8688CE70B4620F097
S31508003F1003070F44ACEB010E1C684EF8034004334C
S31508003F20BB42F9D120F0030310F0030F01EB030E97
S31508003F30A0EB03040CEB030728D011F80380012C2F
S31508003F400CF8038022D09EF80130022C7B7018BF33
S31508003F509EF80230084418BFBB7088E7013A032A66
S31508003F6012D8DFE802F00F1507020B4613F8012BEB
S31508003F701946AA610A4612F8013BAB61114611F8C7
S31508003F80013BAB610B78AB61BDE8F08108446EE795
S31508003F900A46F3E738B50B46154601464FF03A444C
S31508003FA070B101221048C4F8F4201A46FFF72CFF16
S31508003FB025B14FF03A430422C3F8F420002038BD57
S31508003FC073B1D4F8D8209A4284BF0122C4F8F420E9
S31508003FD04FF03A42C2F8D4300223C2F8F430E7E789
S31508003FE00123C4F8F430E3E7CC0000BA10B505F0B5
S31508003FF004FE4FF03A4301225A67C3F8B420C3F8C7
S315080040008C20154A1549C3F890200722C3F8B0201A
S31508004010134B04461A800023124A13804FF4A02239
S31508004020C1F81421A1F58051C1F818210E4A136070
S315080040300E4B5B6C5B020AD54FF480020C4B18687A
S315080040400C4BD8305A6450F8A01C01F027F82046CB
S31508004050BDE8104005F0D5BD280A0020002000BAAA
S31508004060A01400209E140020D8110020000002B8D9
S3150800407044120020002002B807220D4B01211A80A5
S3150800408000220C4B1A804FF03A43C3F8F410C3F8D9
S31508004090CC204FF40052C3F8D000C3F8F020F02229
S315080040A0054B9A64A022A3F580539A64FFF79EBF36
S315080040B0A01400209E140020006000B82DE9F041ED
S315080040C0044688B105F099FD3D4E3E4A3388032CD7
S315080040D003F0780105463C4F03F07F0C11445DD18F
S315080040E03C6824B905F08DFD0320BDE8F08124F075
S315080040F00104386820F00100A04254D100223A6039
S3150800410022888C426FEA42426FEA5242228040D1AC
S315080041102E4CDFF8D0C02788ACF180083A46083A1A
S3150800412092B201F10800604528BF4046082A04D922
S31508004130B0F900E0BEF1000F40DB228088780C88D9
S315080041404FF03A413B449B1ADBB2C4F30C048C652E
S315080041503380C1F89830C1F8B0204FF480221C4B48
S3150800416000F00700C3F8142101221A4BC3F8842172
S31508004170FFF714FE04280CD14FF48002164B5B6C33
S31508004180164B1868164BD8305A6450F8A01C00F025
S3150800419085FF284605F035FD0020A6E7601E0128A4
S315080041A098BF0C46A5E7094862440088A21A48BF8A
S315080041B0803208389042A3DC284693E70146AEE7EA
S315080041C09E140020280A0020D8110020A0140020E0
S315080041D0002000BA00E100E0000002B84412002006
S315080041E0002002B8A80A00201249134B0A881B8827
S315080041F012481344083292B20A804FF03A41C1F885
S31508004200B0204FF480210E4A073BC2F81411012151
S3150800421003F07803034498780A4A00F00700042854
S31508004220C2F8841103D10849CA681203FCD4074AA4
S3150800423013607047A01400209E140020280A00204E
S31508004240002000BA00E100E0000002B8D811002002
S3150800425010B5054C206828B1C30701D4FFF72EFF17
S315080042600023236010BD00BFD81100204FF480330F
S31508004270084AC2F81831A2F58052C2F814314FF034
S315080042803A43D3F8AC30C3F30C03782B01D8FFF7C5
S3150800429085BD7047002000BA034B1A6802609B88E8
S315080042A083800020704700BF100A002010B504461E
S315080042B000F06AFD063C074B032CD3F8F80706D82E
S315080042C000F4C020B0F5C02018BF012010BD0020A2
S315080042D0FCE700BF000002B808B50E4BD3F8FC3760
S315080042E0FF2B0ED0C3F3421103F01F03013303EB78
S315080042F04112FE2A88BFFE23074A98BF03EB4113E3
S31508004300137000F09DFD41F66A03B0FBF3F0034B12
S31508004310186008BD000002B81D0A0020E011002040
S31508004320063803289ABF024B18780020704700BF4A
S315080043301D0A0020334BD3F8F827D3F8FC17324B65
S315080043401B68D3F8C83013B11A68032A2BD82F4B29
S31508004350DB6BC3F3C20013F0380F03F0070218BF74
S31508004360424313F4E07FC3F3821000D04243C1F303
S315080043704213022B234919D9062A37D9D1F8FC3317
S3150800438013F0010335D14FF0E0702149092AC1F82D
S315080043902C012048C0F82C316FF0FF03C1F82831F2
S315080043A01DD91D4B1DE09A6A520EE0E70023D1F88D
S315080043B0FC13C907E7D5032A1CD84FF47C71144AA5
S315080043C043F44C73C2F82C114FF0E071C2F82C116B
S315080043D01049C1F82C316FF0FF03C2F828314FF4A9
S315080043E008530C4A0020C2F8283170474FF40003DE
S315080043F0DDE700234FF47C70054943F43873C1F8B0
S315080044002C01C0E7000002B844120020008001B861
S31508004410002002B8001002B8002DB00BF8B5834D85
S3150800442004462978002950D12C22814806F023FA1F
S315080044302378804FFF223B70638800247B807E4B65
S315080044404FF48150C3F8DC407C4B1A7007227C4B32
S31508004450D3F8F817D3F8FC6703F50053C3F8FC2321
S315080044604FF47072C3F82C21764A4903C3F83021F9
S315080044704FF00102C3F83421C3F86C014FF4006011
S31508004480A3F58053C3F86C0126D4C3F8FC234FF474
S31508004490307216F0E00FC3F82C2108BF4FF4805293
S315080044A04FF0080008BFC3F86C21FDF745FE4FF42E
S315080044B0780420226449C1F86C213A78063A032A1E
S315080044C02BD8DFE802F0156B6E7300235F4AC2F83B
S315080044D0FC305F4A1370ABE70421C3F8FC13802154
S315080044E00920C3F82C11C3F83421FDF725FEE0E7AF
S315080044F016F0E00FC6F3421204D144F40C3444F427
S3150800450040740AE0012A1BBF2020524A44F4C134F1
S31508004510C2F86C0118BF44F48024C1F83041FFF793
S3150800452009FF002839D14C4B1A68B2F1406F474A47
S315080045305BD3D3F87C1201313BD0D3F87C12C9B2D5
S31508004540C2F8DC10D3F88032404ADBB24249C2F8DE
S31508004550E430D1F88432013343F63F7332D0D1F8D0
S3150800456084421C40C2F8D840D1F888120B40C2F8E1
S31508004570E030394BD3F88C1201312CD0D3F88C1299
S3150800458001F0FC01C2F8F010D3F8903203F0FC03F6
S315080045902E4AC2F8F43001232B70F8BD44F40834CF
S315080045A0ADE744F4A73444F48074B6E744F4FE4413
S315080045B0B3E72349D1F82831DBB2C2F8DC30D1F8A9
S315080045C02831C1E71E4CD4F824111940C2F8D81076
S315080045D0D4F82411CAE71A49D1F8343103F0FC0398
S315080045E0C2F8F030D1F83431D0E71549D1F8F84798
S315080045F0D3F83012C9B2C2F8DC10D3F83432DBB2C1
S31508004600C2F8E430630357BF43F62B3341F61B3336
S31508004610C2F8D830C2F8E03049BFC2F8D830FC2317
S31508004620C2F8E030DC23C2F8F030B1E7C21400204B
S31508004630D43F00B0100A0020004001B81C0A002030
S31508004640000002B800FFFF00001002B8003F00B0EB
S31508004650C1140020002002B80080E00F2DE9F04FB9
S31508004660846C4C22022C38BF02248E49013CCB6C48
S31508004670D1F8DC508C49C3F38213DA400B688046C4
S31508004680A34290F804A1C77D884BDFF854B287B0DF
S3150800469002F0010219D11878904216D184480078A0
S315080046A0504512D1D8F84C0078B1A8420DD18148AE
S315080046B0D0F8F800860608D47F480078B84204D1B6
S315080046C0BBF8040007B0BDE8F08F9BF800000C604B
S315080046D01A70FFF725FEFF2F8146764940D1AAF1C9
S315080046E00603032BD1F8F810744B2FD88D064BD53B
S315080046F040F2FF310127C3F88810BB0843F438732A
S315080047006F49C1F888306D4B0121C3F8E010002AC3
S315080047104FD0D8F8C850002D44D02B6840F27126E7
S31508004720082B34D800F08CFBB0FBF6F01923604355
S315080047300025B0FBF3F02946059005A805F06BFDAA
S315080047400602059C46F011062D0461E088061CD574
S3150800475040F2FF31C3F88810FB0843F44073CFE7F3
S31508004760431EBB4228BF3B46012B38BF0123D1F865
S31508004770F810DFB2890608D540F2FF304F491B060C
S31508004780C1F88800E8D4B8E701274D4BBCE795F88F
S31508004790385000F055FBB0FBF6F019236043B0FB28
S315080047A0F3F0C8E700F04CFB40F27123B0FBF3F0DE
S315080047B0F3E700F045FB40F27123B0FBF3F619234B
S315080047C06643B6FBF3F63F4B9821A3FB062303A8E3
S315080047D0039305F020FD039C3B4A361BA2FB0612F9
S315080047E00190342104A8049205F015FD049D00905B
S315080047F0761B302105A8059605F00DFD019B009A4C
S315080048001E02059B2C4446EA0216304D06431C44FC
S315080048102F4B40F6C70218682B21003818BF012015
S3150800482002F0B0FDFA222A4B02FB04F01B6840F6A0
S31508004830FF72B0FBF3F00A235843204B00F57A7455
S31508004840C3F8D820A3F58053C3F8D860A3F58053DE
S31508004850C3F8DC501F4B204E1B78C6F8D4700BB932
S31508004860C6F8FC7086F8FB9000F58C50C8F84C50DA
S315080048701A4D14302C6000F0C9FF4FF47A72C6F84E
S315080048809800C6F8EC002B680B49B3FBF2F3ABF8BB
S315080048900430074BB4FBF2F083F800A098F8173001
S315080048A00B700FE7004001B884090020C3140020EC
S315080048B01B0A0020004F00B01A0A0020006001B849
S315080048C0005001B869C2F568B97A146E3064FC0004
S315080048D0E0110020C1140020003F00B0E4110020C0
S315080048E0100A002010B5104B024618780F4C0E28F7
S315080048F002D1FF20207010BD831F032B8CBFFF2120
S315080049000121FFF70DFD904228BF1046C0B288422C
S3150800491038BF084623788342EDD0054B20701868C7
S31508004920FFF79CFE2078E6E7100A00201C0A002004
S315080049304412002008B50E4B024618780E2812D0ED
S31508004940FF2A13D0FFF7ECFC904228BF1046C2B2EC
S31508004950012A38BF0122074BC3F8FC200123064968
S3150800496010460B7008BD0023FF22F8E70023F6E780
S31508004970100A0020003F00B0C11400200020044B9C
S315080049801870044BD3F8D420C3F8FC20704700BF36
S31508004990C1140020003F00B02DE9F0472D4B2E4CE6
S315080049A04FF47A76A36000F04BFA4FF4FA73B0FB33
S315080049B0F6F6734307462948190E1B021818284AA3
S315080049C04FF0000341F1000104F00CFBA0F58073E1
S315080049D00546236320B966222B2102F0D3FC012564
S315080049E04FF47A724FF0000A6A4353465008310270
S315080049F004F0F8FA1B4BB7F57A7F19601A4B4FEAA1
S31508004A0005688946044618604FEA152505D27622B8
S31508004A102B21504602F0B6FC01264FF47A73A8FB08
S31508004A20030103FB05117308C01841F100010023B7
S31508004A30324604F0D7FA0D4B023419600C4B49F193
S31508004A400009A408186044EA8974034B013C9C6376
S31508004A50BDE8F0870211010000C001B820A10700D7
S31508004A6040420F00F4110020F0110020EC11002044
S31508004A70E81100201022044BC3F884215A60012251
S31508004A80024BDA60704700BF00E100E000C001B8E1
S31508004A9038B501250A4B02019D504FF48073044630
S31508004AA0084A8340536605F0A8F8074AA5401378D4
S31508004AB023EA05031370BDE8384005F0A2B800BF25
S31508004AC000E101B800E001B8C4140020044B01F06D
S31508004AD0F071103041F0030100011950704700BF12
S31508004AE000C001B838B505F08FF8084B084A1D6AAA
S31508004AF092F8C9405A6EE4B2520744BF1D6A01349F
S31508004B0005F088F8284604F0030138BD00C001B84E
S31508004B10003E00B008B5222004F074F94FF4802254
S31508004B20014BDA6008BD00BF00C001B8064B1B6820
S31508004B30434303EB8171054B1B68A3FB003013F15C
S31508004B40004341EB00007047EC110020E8110020FB
S31508004B500C4A20F04043014610B5002014684FF077
S31508004B600042E4FB0320084A890F126802FB03008F
S31508004B70064B9B6B984204D901330131C01A01F0E8
S31508004B80030110BDF0110020F411002000C001B887
S31508004B90836833B10549C268096803F13043032ABB
S31508004BA000D8704743F8041B043AF8E79C0900202C
S31508004BB070B50C68651C15D0C4F302669E42C4F332
S31508004BC0074530D1A4B294422DD804EB8506B242EB
S31508004BD029D2141BA50824F003040E59340F04D057
S31508004BE0012C09D00022012303E06B1C51F8232075
S31508004BF000230260037170BD0D4C34F8133042EA8D
S31508004C0003431A686B1C51F8234001EB83014B6878
S31508004C1022405E4036F07044EAD11B0F032B04BFD6
S31508004C208B681A43E4E7013501EB8501C1E700BF4C
S31508004C30D8B2000870B51646054610B901242046B4
S31508004C4070BD0029FAD04268104B006803321B6811
S31508004C50920800F13040984704460028EFD1002E0C
S31508004C60ECD0EA68A86803323146920800F1304071
S31508004C7005F010FB04460028E1D1D5E904022146D7
S31508004C8000F1304005F0F7FDD9E700BF880900209C
S31508004C9007B501A8FDF7CAFD42F201020C4B0D4902
S31508004CA0C3F870224FF4FC72C3F8E0205822A3F52B
S31508004CB08053C3F8E020084AA3F61C7352F8040B85
S31508004CC043F8040B8B42F9D103B05DF804FB00BF2F
S31508004CD0006001B8104101B8ACB20008836810B48E
S31508004CE0074C03F1304324681B689C4203D15DF8E6
S31508004CF0044BFFF79FBF00205DF8044B704700BFC9
S31508004D009C090020002310B5174C012163643A2042
S31508004D10A364E364FCF76EFD0122144B5A61022278
S31508004D209A62E368C3F303630D2B01D0002BF8D115
S31508004D3011230F4AE3630F490F48FFF77BFF00F083
S31508004D4071FE0E48FFF724FF0D48FFF721FF0D48B7
S31508004D50FFF71EFF4FF08062044B5A61012203F5EC
S31508004D6080535A6110BD00BF000002B8001002B897
S31508004D7058B3000814B800083CB300080CB3000880
S31508004D8024B30008F4B2000801230D4A0D49C2F8FD
S31508004D90803291660C4A53600C4A53600C4A536041
S31508004DA0A2F580425360A2F54042536002F5C03234
S31508004DB0536002F580425360A2F500425360704783
S31508004DC000900050FF0B001600D000B8001000BA83
S31508004DD0005001B838B50324FFF7D6FF124A134B23
S31508004DE0134D1A6500F0FCFCFFF752FF114BC3F890
S31508004DF0104101232B6500F04BFC4FF460736B6187
S31508004E004FF400732B65FEF7C3FF0021FEF78EFFF4
S31508004E108022094B1C64A3F580535C64074BC3F8D6
S31508004E2084215A6038BD00BF0048F000000002B86F
S31508004E30001002B8005001B800A0095000E100E0D7
S31508004E4008B5FBF72BFC044B1B6FC3F30043013378
S31508004E50B0FBF3F008BD00BF0080005070B50446F3
S31508004E6090B1A9B13A4A52F8043B834212D10023C1
S31508004E70384A116CC907FCD49B0003F580434033BC
S31508004E801360354B01221A6470BD01330C2B02D115
S31508004E90324D2CE0012352F8041BA142F5D1304AC9
S31508004EA032F81330E4E7C2F3016335F81300110C46
S31508004EB093B211F0FE0F43EA0043606820D0043431
S31508004EC0CAB2022A216808D9D4E90160033AC3E9BB
S31508004ED0001698600C340C33F3E704D16268C3E912
S31508004EE00012083403E0012A01D10434196022684B
S31508004EF0531CD8D10022174B1A6003F58053C1E71B
S31508004F00120F072AEDD8DFE802F00704090D10137F
S31508004F10181DC04303F500531860E2E71A684240BB
S31508004F201A60DEE703F58053F6E705F0A8F9D8E737
S31508004F30012203F580538240F2E7012203F500536C
S31508004F408240EDE71A6830EA0202FBD1C9E700BFE2
S31508004F50F811002000C002B800D002B8D8B2000884
S31508004F60A01400200122014B1A657047001002B8F0
S31508004F700122014B1A657047002002B84022014BF6
S31508004F801A657047002002B84022014B1A6570471F
S31508004F90001002B8064BDB68C3F30363984206D1D8
S31508004FA0044A936F23F0F00343EA011191677047AF
S31508004FB0000002B8003F00B02DE9F0470E4605F0A4
S31508004FC057F900248046DFF8B4A0DFF8B49004F05F
S31508004FD014FEDAF80C300746C3F30363012B0BD132
S31508004FE0711C35D005F044F9A0EB0804384604F0E6
S31508004FF008FEA642EBD80DE0052BF1D00B2BEFD01F
S31508005000023B012B09D9013602D005F031F93846A1
S3150800501004F0F7FD1848BDE8F087D9F80C3013F40A
S31508005020603FDDD0D9F818301A04C3F3891512D4B5
S31508005030013602D005F01CF9384604F0E2FD2DB21F
S315080050406FF4FF73A5F1C8009842B8BF1846E2E7A7
S3150800505004F0D7FDBBE7731C03D005F009F9A0EBF4
S3150800506008046FEA85556FEA9555384604F0C9FD78
S3150800507015F5007FBDD0E3E700FEFFFF000002B88C
S3150800508000C000B8044BD3F8B03010B1C3F30332F4
S31508005090027003F00F007047000002B8064B01F0DB
S315080050A080015B6C03F480030B4302BF4FF40012CC
S315080050B0024BDA64704700BF000002B8006001B80E
S315080050C070B52C4B0C461A781AB92B4AD2F86C22B2
S315080050D01A702A4A126D52054AD51D78284B05F0D2
S315080050E00F06B0FBF3F040434FEA151505D140F221
S315080050F099622B2102F046F90120224A0A217243BD
S31508005100B2FBF0F34843B3FBF1F602EB5002B2FBF5
S31508005110F0F201FB1633042BD2B207D8C3EB831087
S31508005120C3EB80035BB283B96DB217E0C3F10B031F
S3150800513003EB8303DBB2B3FBF1F32B44DDB20F2D94
S31508005140F2D9013AD2B2053DEEE7053B5BB293FBD5
S31508005150F1F31D44EBB26DB2002D04DB002042EAE8
S315080051600512226070BD01320533D2B25DB2F5E791
S315080051700220F7E7CD1400200080E00F000002B8F7
S31508005180403B250080969800F8B50B46002213F898
S31508005190044B944225D91D68854224D106245A79A0
S315080051A01D79124B88181E6804FB0503104F33F847
S315080051B0063C7B43B3420ED900238A5A7A43964269
S315080051C002D804FB0300F8BD9D42FAD9013304FB5B
S315080051D003F2825AF2E740F25F423D21002002F0D4
S315080051E0D1F80020EFE708330132D2E72812002071
S315080051F040420F0000202DE9F04FA2FB016AB94F8B
S31508005200DFF824C3F7191D466AF10003BC4570EBA5
S31508005210030383B008D240F259220E2102F0B2F8F5
S31508005220022003B0BDE8F08FD5F828908B461446C7
S31508005230B9F1000F04D0D9F80030032B00F293819E
S31508005240A94BAA4A9B6BD2F8FC90C3F31408A84B47
S315080052501B6F59074EBF4FF440039B0503F0E073DD
S3150800526048EA0308A34BD3F8EC305A0048BF48F085
S31508005270807848EA4468FBF741FA0746002CCFD005
S315080052800028CDD09C4B6E62C3F800B09B4B984269
S3150800529000F0B18103F5122303F5F863984200F094
S315080052A07381974B984200F0B18102460023002093
S315080052B04FF0007103F096FE0023013006FB03F35E
S315080052C000FB0A33A6FB00021344203389499B09D5
S315080052D02B60D1F8ECB3D1F8F033D1F878A1D1F836
S315080052E0A01000930846584030F47F630CBF012095
S315080052F0002040F2BB220191102102F043F88BEA0C
S315080053000A0232F47F634FF0100140F2C1220CBF4B
S315080053100120002002F036F87A4A009BD2F8601283
S31508005320C9B2FF291CBF2AF47F6242EA01127649F4
S3150800533008BF5A468E4207D9211F012940F2278104
S3150800534072498E4200F22381B7FBF4F7C8F31301C2
S31508005350A1FB0717AB61684BC90C41EA473118F442
S31508005360801F1F686A4B08BF49421960694B0F4482
S31508005370C5E907B21F60B9F1000F00F032810023BA
S315080053806B60AB60D9F81C60D9F800A0002E49D034
S31508005390BAF10F0F97BF574BB9F818B0D3F88C313D
S315080053A0C3F3832B524B98BF0BF1080BD3F83C3150
S315080053B0B7FBFBF2DB0216D5002381EAE17EAEEBF2
S315080053C0E17E5549C8F3815811F808C019465008B6
S315080053D04FEACC5CCCFB0E01009203F003FE009A68
S315080053E0C0F3130068605F4504D3B2FA82F10D2951
S315080053F040F3048133469103B1FBF3F14B004FEAC6
S31508005400C23E0133520C01E002330131A3FB06C050
S31508005410E64572EB0000F7D2C1F30E01090341F02D
S315080054200061A960BAF1050F40F2DF80D9F82C6057
S31508005430002E00F0B680307804FB07F7A0F10400D0
S31508005440B0FA80F040F226523D21400901F09AFF59
S31508005450324B9F4240F20181314B9F4240F201811B
S31508005460304A974294BF0222032244F21421FF0BCA
S3150800547007EBC70307EB43039B0B013B5B02324475
S315080054806B61567801FB07F2B6EBD25F4FEAD2534F
S3150800549080F0E5802644B34240F2D7802644B342E2
S315080054A040F2E1802644B34240F2DF802644B3420C
S315080054B040F2DD802644B34298BF052040F2C680FC
S315080054C0002040F241523D2101F05CFF44F677632B
S315080054D007FB03F3DB0D013BB34280F0BC800020E1
S315080054E026E000BF006CCA88008001B8004F00B0F3
