S01700007261696C5F736F635F70726F6A6563742E7333373B
S315080000000008002039140008C9CC0008C9CC00082B
S315080000100BDB0008C9CC0008C9CC0008C9CC00080D
S31508000020C9CC0008C9CC0008C9CC0008C9CC00084E
S31508000030C9CC0008C9CC0008C9CC0008C9CC00083E
S31508000040C9CC0008C9CC0008C9CC0008C9CC00082E
S31508000050C9CC0008C9CC0008C9CC0008C9CC00081E
S31508000060C9CC0008C9CC0008C9CC0008C9CC00080E
S31508000070C9CC0008C9CC0008C9CC0008FD12000884
S31508000080ED120008C9CC0008C9CC0008C9CC000884
S31508000090C9CC0008C9CC0008511B0008C9CC000807
S315080000A0C9CC0008C9CC00088D1C0008651C0008CE
S315080000B0C9CC0008C9CC0008097D00087987000862
S315080000C09BDD000897DD0008457F0008A7DD0008CE
S315080000D09FDD000851870008A3DD0008DD870008BA
S315080000E019880008C9CC0008C9CC0008C9CC000882
S315080000F0C9CC0008C9CC0008C9CC0008C9CC00087E
S31508000100C9CC0008C9CC0008C9CC0008C9CC00086D
S31508000110C9CC0008C9CC0008C9CC0008C9CC00085D
S31508000120C9CC0008C9CC0008C9CC0008C9CC00084D
S31508000130C9CC0008C9CC0008C9CC0008C9CC00083D
S31508000140C9CC0008C9CC0008C9CC0008C9CC00082D
S31508000150C9CC0008C9CC00083FDB0008A1A80008E4
S31508000160C9CC0008C9CC0008E3E10008E9E10008A9
S31508000170013800D0FCE770472DE9F04FC76997B002
S315080001808346209E08910C92129355EC104B8DEDE8
S31508000190000B7FB910200BF0DFFC0246CBF81C00E1
S315080001A020B9A74BEF21A7480CF0EEF9C0E9017773
S315080001B00760C760DBF81C30196859B15A68012313
S315080001C0584693404A608B600BF0B4FDDBF81C3050
S315080001D000221A602B1EB7BF23F00043002301221A
S315080001E00193A8BF3360019F974BB8BF3260BB43EA
S315080001F019D142F20F73129A1360C7F313032343FC
S3150800020000F0DB85219B53B9904B21E0904B03937B
S315080002100833219A1360039817B0BDE8F08F8B4B0B
S3150800022003930333F5E79DED007B0022002351EC91
S31508000230170B8DED0A7B0CF059FC804650B1012353
S31508000240129A1360219B13B1824B219A1360824B39
S315080002500393E0E7C7F30A5614AA15A958469DED75
S315080002600A0B0BF0EFFF0290002E76D00B9BA6F23E
S31508000270FF36CDF84C80C3F3130343F07F53DDE913
S315080002800A0143F4401319460022744B0AF0DEFBB8
S3150800029065A3D3E900230CF0C1F965A3D3E90023CC
S315080002A00AF0D6FB04460D4630460AF01DFD62A349
S315080002B0D3E900230CF0B2F902460B46204629463C
S315080002C00AF0C6FB04460D460CF058FC0022074609
S315080002D00023204629460CF013FC40B138460AF0A4
S315080002E003FD22462B460CF001FC00B9013F162FF0
S315080002F052D85B4B03EBC703DDE90A01D3E90023B8
S315080003000CF0FEFB002849D0013F00231193149BF3
S315080003109B1B5A1E4CBFC3F101030023079245BF1E
S315080003200693002306930793002F39DB079B109744
S315080003303B44079300230993089B092B66D8052B92
S31508000340C5BF043B002401240893089B023B032BEA
S3150800035067D8DFE803F02D3A3859DDE914631E44FF
S3150800036006F23243202BC9BFC3F14003C3F1200371
S315080003709F4006F21243D8BF04FA03F006F1FF368F
S31508000380C4BF24FA03F347EA03000AF09DFC0122DE
S31508000390A1F1F873139276E70123B7E71190B6E750
S315080003A0069BDB1B06937B42099300231093C3E746
S315080003B000230D930C9B002B56DC012399461A4605
S315080003C004930C920CE00123F3E700230D930C9B96
S315080003D0FB1803F1010904934B46012BB8BF01230F
S315080003E0DBF81C000021042202F114059D423FD9C6
S315080003F0416058460BF05EFC039000283BD1194B30
S31508000400024640F2AF11CEE60123DFE701240023BE
S315080004100D9408934FF0FF33002299460493122354
S31508000420CFE701230D93F5E761436F63A787D23FB3
S31508000430B3C8608B288AC63FFB799F501344D33FC5
S31508000440524F0108694F01080000F07F4E4F01081E
S31508000450454F0108224F0108214F01080000F83FC7
S3150800046068500108C24F01080C9B99460493B7E7E8
S3150800047001315200B8E7DBF81C30B9F10E0F039AC8
S315080004801A606FD8002C6DD0002F36DD07F00F02EA
S31508000490A04BF8054FEA271403EBC20393ED007B44
S315080004A08DED0E7B17D59C4B04F00F044FF0030817
S315080004B0D3E90823DDE90A010CF0DAF9CDE90001F0
S315080004C0954D5CB9DDE90E23DDE900010CF0D0F9A4
S315080004D0CDE900012BE04FF00208F1E7E10709D565
S315080004E008F10108DDE90E01D5E900230CF096F8BC
S315080004F0CDE90E0164100835E3E700F007817C4278
S31508000500844B854D4FF0020804F00F02241103EBCB
S31508000510C203DDE90A01D3E900230CF07FF80023C2
S31508000520CDE90001002C40F0E580002BD0D1119BCD
S31508000530DDE90045002B00F04C810022774B204670
S3150800054029460CF0DDFA002800F04381B9F1000FC6
S3150800055000F03F81049B002B00F3E480DDE90A34B8
S31508000560CDE90034159B002B02DB0E2F40F34282A7
S315080005700D9A002A40F06782099C0025DDF818804C
S31508000580B8F1000F0DD0079B002B0ADD4345069AEC
S31508000590A8BF4346D21AA8EB03080692079AD31AAD
S315080005A00793099B0BB30D9B002B00F0A682002C2A
S315080005B000F0A1822946224658460BF0E5FC029A2D
S315080005C00146054658460BF035FC0299064658463C
S315080005D00BF0B0FB099B1B1B099300F09182099A4B
S315080005E0314658460BF0D0FC0290012158460BF0D4
S315080005F00BFC109B0446002B00F084821A46014629
S3150800060058460BF0C1FC089B0446012B03DC009BF3
S31508000610002B00F07C820026236904EB830318690B
S315080006200EF019F9C0F120001096079B184410F037
S315080006301F0000F09182C0F12003042B40F3818251
S31508000640C0F11C00069B034480440693079B0344A1
S315080006500793069B002B05DD1A46029958460BF0B0
S31508000660EDFC0290079B002B05DD21461A465846ED
S315080006700BF0E4FC0446119B002B00F07682214621
S3150800068002980EF037F9002880F26F8200230A22BA
S31508000690029958460BF070FB0D9B7E1E0290002BAC
S315080006A000F05C82002329460A2258460BF064FBB8
S315080006B0049B0546002B03DC089B022B00F35E8295
S315080006C0B8F1000F05DD2946424658460BF0B6FC40
S315080006D00546109B002B00F0D082696858460BF03F
S315080006E0E9FA0746002840F07F820D4B024640F2A1
S315080006F0EF2158E5E20706D508F10108D5E90023F8
S315080007000BF08CFF0123641008350BE74FF0020845
S315080007100DE700BF68500108405001080000F03F8F
S31508000720C24F010820460022AC4B29460BF076FF43
S315080007307E1E08F10108049CCDE9000140460AF036
S31508000740D3FADDE900230BF069FFA54B00220AF076
S315080007507FF9A1F15073CDE90E010F93002C3BD11F
S315080007600022A04BDDE900010AF070F902460B46AB
S31508000770CDE90023DDE90E230CF0E0F9002840F06E
S315080007805781DDE90E2101F10043DDE900010CF096
S31508000790B7F900283FF4E2AE002425460C9BDDF8A5
S315080007A00CA0DE434FF00008214658460BF0C2FA6B
S315080007B0002D00F0A980B8F1000F05D0A84503D098
S315080007C0414658460BF0B6FA294658460BF0B2FA97
S315080007D09AE03E464C46B1E7834B03EBC40353E924
S315080007E00201039B1C440D9B002B4AD002460B4674
S315080007F000207E490CF03CF8DDE90E230AF026F9C4
S31508000800DDF80CA0CDE90E01DDE900010CF0B6F922
S3150800081005460AF069FA024630350B46DDE900015D
S315080008200AF014F90AF8015B02460B46CDE9000105
S31508000830DDE90E010CF082F9002865D100206C492B
S31508000840DDE900230AF002F902460B46DDE90E014E
S315080008500CF074F9002840F00D81A24500F0EA80FA
S3150800086000225E4BDDE90E010BF0D8FE00225B4B41
S31508000870CDE90E01DDE900010BF0D0FECDE900015E
S31508000880C2E7DDE90E230BF0C9FEA046DDF80CA091
S31508000890CDE90E01DDE900010CF070F905460AF014
S315080008A023FA024630350B46DDE900010AF0CEF898
S315080008B00AF8015B02460B46A245CDE900234FF034
S315080008C0000223D1494BDDE90E010AF0C1F80246C0
S315080008D00B46DDE900010CF031F9002840F0CA802A
S315080008E000204249DDE90E230AF0B0F802460B461D
S315080008F0DDE900010CF004F970B1C24608F1FF38D1
S315080009001AF8013C302BF8D0374655E0334B0BF03C
S3150800091085FECDE90001BDE7DDE90A34CDE90034FD
S31508000920159B002BFFF628AE0E2F3FF725AE2E4B54
S3150800093003EBC70393ED007B0C9B002B8DED047B2B
S3150800094002DAB9F1000F64D0DDF80CA0DDE9004544
S31508000950DDE90423204629460BF08AFF0CF00EF940
S3150800096006460AF0C1F9DDE904230BF057FE0246F4
S31508000970204606F130040B4629460AF067F80AF8BD
S31508000980014B039C02460B46AAEB0404A14540F022
S3150800099082800AF05DF804460D46DDE904230CF072
S315080009A0CDF8002865D120462946DDE904230CF058
S315080009B09DF808B1F3075CD4029958460BF0BAF9CA
S315080009C0002301378AF80030129B1F60219B002BF9
S315080009D03FF421ACC3F800A01DE400BF000024408A
S315080009E000001C4000001440685001080000E03F69
S315080009F00000F03FA24B03EBC70393ED007B0C9B73
S31508000A00002B8DED047B9FDAB9F1000F9CDC7FF497
S31508000A10C3AE00229B4BDDE904010BF0FFFDDDE9C7
S31508000A2000230CF081F8044600287FF4B5AE3E4654
S31508000A302546B4E0DDE90A34CDE90034159B002BE0
S31508000A4001DB0E2FD6DD089A012A36DC139A82B30B
S31508000A5003F23343099CDDF81880069A01215846AB
S31508000A601A440692079A1A4407920BF0CDF90546DE
S31508000A7086E53E4653469A4613F8012D392A06D18D
S31508000A80039A9A42F7D13022039901360A701A78E6
S31508000A9001321A7038E700227B4B0BF0BFFD0022AB
S31508000AA0002304460D460CF021F800283FF450AF09
S31508000AB082E7149BC3F13603CCE709F1FF34099B9F
S31508000AC0A34208DBB9F1000FA3EB04040EDBDDF843
S31508000AD018804B46C1E7099B109AE31A0994DDF87A
S31508000AE0188000241A444B461092B6E7069BA3EBDF
S31508000AF009080023B1E7029E71E5099A029970E593
S31508000B00029672E5089B012B17DC009BABB9019B8B
S31508000B10C3F313039BB9019B23F00046360D360534
S31508000B2036B1069B012601330693079B01330793CB
S31508000B30109B002B7FF470AD1096012075E50026FA
S31508000B40F6E73FF486AD1C33069A1A449844069293
S31508000B50079A1A4407927CE50346F4E7049B002BA0
S31508000B602BDC089B022B09DC27E0B9F1000F1DDC02
S31508000B70089B022B1ADD3E46CDF81090049B002BED
S31508000B807FF40CAE2146052258460BF0F5F80146CF
S31508000B90044602980DF0AEFE00287FF7FFADDDF89B
S31508000BA00CA0312301360AF8013BFBE50D9B3E46B6
S31508000BB0CDF81090002B7FF483AD039F2146029851
S31508000BC00DF0BCFD039B00F13009049A07F8019B60
S31508000BD0FB1A9A4240F3CB8000230A220299584610
S31508000BE00BF0CAF80290E9E72A6905F10C010C3006
S31508000BF0023292000DF08DFD0122394658460BF05F
S31508000C001DFA039BA846054603F1010ADDE90323FD
S31508000C1013440793009B03F0010309930AF1FF337A
S31508000C202146029804930DF089FD4146069000F18D
S31508000C30300902980DF05EFE2A46214607465846B8
S31508000C400BF068FAC268014602B358460BF072F810
S31508000C50002F3ADA0122029958460BF0EFF921469D
S31508000C6002900DF047FE002803DC29D119F0010F88
S31508000C7026D0B9F1390F1DD132E02846C1E700BFA9
S31508000C806850010800001440000024400A900298A9
S31508000C900DF030FE0A990C9058460BF04BF80C9A5A
S31508000CA05ABB089B53B9099B43B9B9F1390F17D0F9
S31508000CB0002F05DD069B03F1310901E0002F2ADA32
S31508000CC0DDF810A00AF8019B6EE5089B3B4304D1AA
S31508000CD0009B03F00103002BBCD0B9F1390F36D1C4
S31508000CE0049F392307F8013BBA46013F1AF8013C2D
S31508000CF0392B5AD001333B7056E5002F06DB089B8B
S31508000D003B4306D1009B03F0010313B9002AA1DC7B
S31508000D10D6E7002AE1DC079B57460AF8019C5345AB
S31508000D202ED000230A22029958460BF025F8A8452A
S31508000D3002904FF000034FF00A02414658460BD185
S31508000D400BF01AF8804605460AF1010A66E7DDF84F
S31508000D5010A009F10109B5E70BF00EF829468046FF
S31508000D6000230A2258460BF007F80546ECE7049BD1
S31508000D704FF00008002BCCBF1F460127039B1F44DA
S31508000D800122029958460BF059F9214602900DF0B6
S31508000D90B1FD0028A8DC02D119F0010FA4D1BA468A
S31508000DA017F8013D302BFAD0FEE4039BBB429BD1DA
S31508000DB03123039A01361370F6E4219B002B7FF446
S31508000DC025AA014BFFF744BA454F01080348044BCF
S31508000DD0834202D0034B03B118477047F40B002037
S31508000DE0F40B002000000000064B0749C91A8910B9
S31508000DF048BF0131491003D0044B0BB101481847CD
S31508000E00704700BFF40B0020F40B00200000000020
S31508000E1010B5064C237843B9FFF7D8FF044B13B136
S31508000E200448AFF300800123237010BDCE170020BD
S31508000E30000000008851010808B5054B1BB105499B
S31508000E400548AFF30080BDE80840FFF7CDBF00BFF7
S31508000E5000000000280E002088510108A3F5803AFA
S31508000E60704700BF174B002B08BF134B9D46FFF773
S31508000E70F5FF00218B460F461348144A121A0DF047
S31508000E802FFC0E4B002B00D098470D4B002B00D0A3
S31508000E9098470020002104000D000D48002802D0C4
S31508000EA00C48AFF300800AF0E9FD2000290000F0A5
S31508000EB023F90AF013F900BF00000800000000003B
S31508000EC00000000000080020F40B0020F81700209E
S31508000ED0000000000000000008B501213A2001F0DA
S31508000EE0D7FB012308220321084602F0CBFD044B59
S31508000EF00822C3F8D0204FF47A7004F061FA08BDCE
S31508000F0000D0035010B5002000F060FA04460BF03C
S31508000F10AEFE06480AF00AFD05480AF007FDFFF787
S31508000F20DBFF0BF053FE204610BD00BFA0EC000807
S31508000F30A8EC00082DE9F04192B0074601212A20C5
S31508000F4001F0A6FB02214FF4B06001F0B3FE0025C4
S31508000F500F95109511950DF1140C2C4C0FCCACE88F
S31508000F600F000FCCACE80F0094E803008CE80300F0
S31508000F70039504954FF003088DF80E8001268DF829
S31508000F8008608DF809508DF80A508DF80B50204CE2
S31508000F90204602F0D7FD31462A2001F079FB0221CE
S31508000FA04FF4B06001F086FE8DF8178040F2BA4320
S31508000FB008938DF8155002238DF816309DF84130A8
S31508000FC000932B462A461349204602F069FE0790ED
S31508000FD0114BD3F8282342F48032C3F82823D3F8D8
S31508000FE028233243C3F828238DF809708DF8086042
S31508000FF005AA0FA9204602F079FE02AA03A92046EF
S315080010000CF0E9FA12B0BDE8F08100BF0CED00085B
S31508001010004000598096980000C00350054B0122F5
S31508001020DA60044B5B6913F0400FFAD1014BD86FB5
S31508001030704700BF00400059F8B50A4C04F5005344
S3150800104080271F644FF480761E64074D284604F0F7
S31508001050B7F904F5805427642664284604F0B0F9E5
S31508001060F8BD00BF00C0035040420F0030B52DED5B
S31508001070028B85B0FFF7E0FFA220FFF75BFFFFF7C3
S31508001080CDFF0446184804F09BF9A320FFF752FF4A
S31508001090FFF7C4FF054607EE904AB8EE678ADFED0C
S315080010A0136A28EE268A9FED127A28EE078A07EE3B
S315080010B0900AF8EE677A67EEA67A67EE877A17EEF1
S315080010C0900A09F023FECDE9020118EE100A09F08C
S315080010D01DFECDE900012A46214606480AF014FC01
S315080010E005B0BDEC028B30BD40420F0048E19A3F87
S315080010F000008039BCEC000808B50CF043FDFFF78A
S3150800110001FF044B18600CF049FD024B1868FFF705
S31508001110ADFFF8E7400E002008B501F04DFC0CF0D5
S31508001120B4F9264A136F23F0070343F00303136742
S3150800113001F0A2FD224B9B6A13F0807F03D1214B5D
S315080011404FF480329A621D4BD3F8202122F0070211
S3150800115042F00202C3F82021D3F8282122F0070220
S3150800116042F00202C3F82821D3F8402122F00302F4
S3150800117042F00102C3F84021D3F8602122F00302AD
S3150800118042F00102C3F86021D3F8402222F003029C
S3150800119042F00102C3F84022D3F8002222F00702E7
S315080011A042F00102C3F80022D3F8082222F007020F
S315080011B042F00102C3F80822002008BD0080005052
S315080011C00040005A0060005A10B4194B5A6E02F4D7
S315080011D0803203F580514FF480304866586E4FF0E0
S315080011E000434B66134B596C01F001014AF6CD34A6
S315080011F01C64104B5B6B13F0010FFAD10E4B0124E4
S315080012005C600C4B1B6B13F0010FFAD011B1094B44
S315080012100A491964002803DB094B4FF00041596657
S315080012201AB9074B4FF480325A665DF8044B70477B
S315080012300080005000400950006009503254FFFFFA
S3150800124000A0005030B59FB0234C0DF1580CA646AF
S31508001250BEE80F00ACE80F009EE80F008CE80F0010
S31508001260302200210AA80DF03BFA1C4B0A930125EF
S315080012708DF82D5058230C9302220D9203238DF8D6
S3150800128038300F928DF84030119508AA203494E82A
S31508001290030082E803000DF1080C00230293039370
S315080012A004930593069307938CE803000F238DF8A0
S315080012B0103010238DF81130094B0593202306931F
S315080012C08DF81D50074B00930AAB16AA61460648CF
S315080012D003F05AFB1FB030BDC0F2000800400A50A8
S315080012E0440E0020640E0020C80E002008B50248EF
S315080012F00CF080FA08BD00BFC80E002008B50248E9
S315080013000CF078FA08BD00BFC80E002010B58AB0E8
S3150800131000230693079308930993254B06932549BB
S3150800132006A807F0EFFA244B186030B1002305939E
S3150800133005A90CF024FE08B1FEE7FEE71E4C1F4A7D
S315080013401F4B1968206807F0FDFC002120680CF087
S31508001350A9F900B1FEE71B49174B186807F01EFDEF
S3150800136000B1FEE74FF0FF3240F2FF33CDE900232C
S315080013704FF0FF324FF0FF330F4908680CF0A1FD1C
S3150800138000B1FEE7104B1B88ADF81030ADF80C30F5
S3150800139004A9094B18680CF07CFD00B1FEE703A907
S315080013A0054B18680CF08BFD00B1FEE70AB010BDBE
S315080013B0B9CC00089BCC000810080020A5CC000872
S315080013C00008002007001100E8F2000882B0054B6B
S315080013D0019302AB03EB800050F8043C186802B096
S315080013E0704700BF1008002018B1034A106000209B
S315080013F070472520704700BFE00E002010B5044C4A
S315080014000449206800F090FD2068FFF7EDFF10BD45
S31508001410400900201408002008B50448044A121A96
S31508001420921004490BF051FC08BD00BF9055010805
S3150800143090550108F817002008B500F02FF8FFF7B7
S31508001440EBFF124A0AE01068516850F8230041F889
S315080014502300013391688B42F5D30C320C4B9A4228
S3150800146001D20023F6E70B4A08E01168002041F88C
S315080014702300013351688B42F7D30832064B9A4250
S3150800148001D20023F6E7FFF7EDFC00BF90510108F3
S315080014909C5101089C5101089C51010810B4144B39
S315080014A0144A9A60D3F8882042F47002C3F8882058
S315080014B0114A4FF480419166104901F500524FF0E8
S315080014C0FF3010660E4850660220C3F8D000BFF3FE
S315080014D04F8FBFF36F8F0B480124C0F880414FF43C
S315080014E04033D36004600B615DF8044B704700BF5E
S315080014F000ED00E000000008009000500080004465
S315080015007FFF7F0100E100E0014B1868704700BFCC
S315080015104809002008B5094B1B6F03F00703022B87
S3150800152004D0032B05D0012B06D0FEE7FFF7ECFF0E
S3150800153003E0034B186800E0024808BD008000502D
S3150800154050090020002D310108B5FFF7E3FF054BD0
S315080015501B6FC3F303330133B0FBF3F0024B186080
S3150800156008BD00BF008000504409002000487047AD
S3150800157000B4C404014B1868704700BF5009002026
S3150800158008B5064B1860064B1B6F03F00703032BC1
S3150800159000D008BDFFF7D8FFFBE700BF50090020C1
S315080015A00080005000487047002D31014FF0B443C9
S315080015B09868C0F304400C2808D8DFE800F009074B
S315080015C00707070722181A071C1E20000020704765
S315080015D04FF0B4439B6803F04073B3F1807F12D099
S315080015E0B3F1007F11D003B1704709487047094825
S315080015F070470948704709487047094870470948BD
S31508001600704709487047094870470948ECE700BF22
S3150800161000093D000024F400C0EA210180BA8C01CB
S315080016200048E801005A6202405DC60080841E0038
S3150800163040420F00014B1868704700BF4C09002054
S315080016400346064A10680344054A934202D8034AE9
S31508001650136070474FF0FF30704700BF54090020F1
S3150800166000000120F0B585B00C4694469DF834106C
S31508001670664A1278002A00F0BD800546BCF1070FBD
S3150800168000F2BA800A9A002A00F0B8800B9A002A5B
S3150800169000F0B6800E9AB2F5006F00F3B380012809
S315080016A05BD05B4A02EB0C12127B002A00F0AC807E
S315080016B000220092019202920392564A02EB4C1EB5
S315080016C0002C4FD14FEA4C1600209051CEF804005A
S315080016D0CEF80800CEF80C009EF8020040F0100084
S315080016E08EF802009EF8030040F030008EF80300E2
S315080016F021B9C1B241F003018EF8031000930E9B85
S31508001700013B444A4FEA4C1002EB4C11165A63F35C
S315080017100E1616520A9B8B600B9B4B60CB789DF876
S315080017203C2062F38303CB70012D36D0109B002B2F
S3150800173056D0374A4FEA0C1102EB0C13109850504A
S31508001740119A5A6000249C605D7372466946604629
S3150800175002F0FCFC204605B0F0BD0C9A002AA0D188
S315080017602D48F8E72B4F4FEA4C1607EB4C12002092
S31508001770B85150609060D060907840F0100090703A
S31508001780D07840F00300D0700029B7D107EB4C128F
S31508001790C1B241F03001D170B0E70E460A7B42F083
S315080017A001020A73D2B242F002020A73CA6804211D
S315080017B061F39F02F26006F1100796E80F0087E8CA
S315080017C00F00F2696FF0030161F39F02F2610C9B4F
S315080017D07361012CAAD10B9AB2610C9A7260A5E7C3
S315080017E0002DA6D10B4B03EB4C139A786FF304121A
S315080017F09A709EE70948AEE70748ACE70648AAE7A5
S315080018000548A8E70448A6E70548A4E7CF17002037
S3150800181044100020440F0020018000F0028000F0F0
S31508001820078000F0134B1B78FBB110B50446F0B1E6
S315080018300BF03EFE0023072B13D80F4A02EB0312C8
S31508001840127B0AB10133F6E723600B4A190102EB52
S31508001850031301241C73002454500BF02FFE20465A
S3150800186002E00BF02BFE054810BD054870470548F9
S31508001870FAE700BFCF17002044100020048000F0CC
S31508001880028000F0018000F038B50BF011FE044626
S315080018900023072B06DC0C4A02EB0312127B12B953
S315080018A00133F6E7002222B120460BF007FE07486F
S315080018B038BD02F0EDFB0025054B1D7020460BF0E8
S315080018C0FDFD2846F4E700BF44100020058000F01F
S315080018D0CF1700200F4B1B78BBB110B5044607285D
S315080018E015D80BF0E5FD0C4B03EB04131B7B1BB95A
S315080018F00BF0E4FD09480BE0074B03EB0413002447
S315080019001C730BF0DBFD204602E0054870470548CE
S3150800191010BD00BFCF17002044100020068000F03D
S31508001920028000F0018000F000B583B0134B1B68FD
S31508001930019300238DF804300BF0BAFD104B1B7889
S3150800194033B90F4B01221A700BF0B8FD002309E0DA
S315080019500BF0B4FD0B480EE00B4A02EB0312002114
S3150800196011730133072BF7DD08238DF8073001A81B
S3150800197002F0BAFB002003B05DF804FBECF20008A5
S31508001980CF170020038000F04410002008B50A4B4A
S315080019901B785BB107280BD8084B03EB00131B7B9E
S315080019A043B1002102F092FB002008BD0448FCE781
S315080019B00448FAE70448F8E7CF1700204410002047
S315080019C0028000F0018000F0078000F008B50A4B9D
S315080019D01B785BB107280BD8084B03EB00131B7B5E
S315080019E043B1012102F072FB002008BD0448FCE760
S315080019F00448FAE70448F8E7CF1700204410002007
S31508001A00028000F0018000F0078000F008B50A4B5C
S31508001A101B7853B107280AD8084B03EB00131B7B26
S31508001A203BB102F0DDFB002008BD0548FCE7054890
S31508001A30FAE70548F8E700BFCF1700204410002052
S31508001A40028000F0018000F0078000F0114B1B783F
S31508001A50BBB1072817D8C1B10F4B03EB00131B7B8B
S31508001A60ABB11F280AD80D4BDB6AC0B2C34013F0CE
S31508001A70010F03D001230B70002070470020087067
S31508001A807047074870470748704706487047064832
S31508001A90704700BFCF1700204410002000000450F4
S31508001AA0028000F0018000F0078000F0104B1B78E0
S31508001AB0ABB1072815D8B1B10E4B03EB00131B7B4E
S31508001AC09BB10D4B1B6D0122824013EA020003D025
S31508001AD001230B700020704700230B7070470748DE
S31508001AE0704707487047064870470648704700BF62
S31508001AF0CF1700204410002000000450028000F098
S31508001B00018000F0078000F00C4B1B7873B110B50C
S31508001B100C4607280CD869B1094B03EB00131B7B4D
S31508001B2053B102F06FFB2070002010BD05487047C6
S31508001B300548FAE70448F8E70448F6E7CF1700200F
S31508001B4044100020028000F0018000F0078000F0B9
S31508001B50F8B5194B1F6D5B6D1F4002D40125002493
S31508001B6002E0FEE701346D00072C24D83D42F9D087
S31508001B70124B1D652301124AD358002BF2D002EBF3
S31508001B800416B1680131B16072682046984780F042
S31508001B900100C0B2737B012BE4D10028E2D0094BC7
S31508001BA003EB44131A7B6FF341021A731A7F6FF320
S31508001BB041021A77D6E7F8BD000004500020045009
S31508001BC044100020440F002010B5044602E02020EF
S31508001BD007E09047DCB194FAA4F00028F7D0B0FAF1
S31508001BE080F00123834024EA0304094B03EB001326
S31508001BF05A68002AEED0064B03EB00131B7B002B1A
S31508001C00E7D0034B03EB001399689047E2E710BD52
S31508001C10C410002008B51A2001F060FB28B1084B53
S31508001C204FF08062C3F880211A601B2001F056FB32
S31508001C3028B1034B4FF00062C3F880211A6008BD33
S31508001C4000E100E038B505460C460BF031FC044BC4
S31508001C5003EB05135C6000221A730BF02FFC38BDEA
S31508001C60C410002008B5084BD3F82404D3F8202460
S31508001C70104000F0553020F0502003F50053C3F80B
S31508001C802004FFF7A1FF08BD00C0035008B5084BA4
S31508001C90D3F82404D3F82024104000F0AA3020F00A
S31508001CA0A02003F50053C3F82004FFF78DFF08BDF5
S31508001CB000C0035001460023032B08D8054A52F8F2
S31508001CC0230090F821208A4202D00133F4E700204D
S31508001CD0704700BFC412002090F83530022B01D09F
S31508001CE000207047437F90F8212003EB43031B0134
S31508001CF0143303495858D04000F00100704700BF1C
S31508001D0030C0035030B139B142B1B2F5006F07D8CF
S31508001D1000207047034870470348704702487047D9
S31508001D2001487047027000F0037000F0154B1B78ED
S31508001D3053B9032B05D8144A002142F8231001335E
S31508001D40F7E7104B01221A700023032B06D80E4A18
S31508001D5052F82320824212D00133F6E7002300E02E
S31508001D600133032B09D8084A52F82320002AF7D151
S31508001D70054A42F8230000207047044870470020AF
S31508001D80704700BFD0170020C4120020027000F070
S31508001D9010B50446FFF7C8FD002104F10800FFF757
S31508001DA041FD30B9002104F10C00FFF73BFD10B9E5
S31508001DB010BD0248FCE70148FAE700BF0E7000F0C4
S31508001DC0A0B110B5044690F832303BB194F83230E1
S31508001DD00133DBB284F83230002010BDFFF77CFFF8
S31508001DE00028F3D1A068FFF7D1FDEFE70048704758
S31508001DF0027000F0C8B110B5044690F83230B3B19D
S31508001E0090F83230DBB2012B07D094F83230013B20
S31508001E10DBB284F83230002010BDFFF75DFF0028E2
S31508001E20F3D1A068FFF7D2FDEFE7024870470248F2
S31508001E30F2E700BF027000F0057000F010B582B03E
S31508001E40044690F83530022B04D0012B34D00020FC
S31508001E5002B010BD437E53B9837F90F8222001213A
S31508001E60914003EB43031B01234AD150EFE7012BB3
S31508001E700CD0037EABB9837F90F8222001219140D4
S31508001E8003EB43031B011C4AD150E0E7837F90F81C
S31508001E9022200121914003EB43031B01174AD1502D
S31508001EA0D5E7837F90F822200121914003EB430375
S31508001EB01B01124AD150CAE7037E73B911238DF864
S31508001EC00730FFF77DFF01220DF1070120460BF0D1
S31508001ED061F82046FFF78EFFB9E713238DF8073020
S31508001EE0FFF76EFF01220DF1070120460BF052F8AD
S31508001EF02046FFF77FFFAAE740E0035040D0035093
S31508001F0010B50446074990F82100FFF79BFEFFF736
S31508001F1081FE0023A3762376022363762046FFF705
S31508001F208DFF10BD77CE0008F0B58FB006460C467B
S31508001F300DF1180C804D0FCDACE80F0095E80F0099
S31508001F408CE80F00002300930193029303930493F4
S31508001F500593002E00F0EA803546002C00F0E88054
S31508001F606022194630460CF0BBFB23683360022317
S31508001F7086F83630237C33713046FFF7D7FE06469F
S31508001F80002859D1237F85F8353023686B4A934258
S31508001F900ED06B4A934252D06A4A934240F0CA80A6
S31508001FA058236B62684B2B614FF490136B6106E004
S31508001FB056236B62654B2B614FF480136B610023CC
S31508001FC085F8313085F83030A26A616A28460AF009
S31508001FD0C1FE01213A2000F05BFB0121686A00F08E
S31508001FE057FB2379002B32D1594AD2F8203223F0F5
S31508001FF0070343F00103C2F82032227C554B2632F0
S3150800200003EB421210215160217BA07B227C41EA1E
S31508002010004103EB4212C2F8DC14627BE07B217CB0
S3150800202042EA004203EB4113C3F8D424214628466A
S315080020300AF07AFE0646C0B130460FB0F0BD572307
S315080020406B62454B2B614FF488136B61B7E701212F
S31508002050362000F01DFB3E4AD2F8203223F0070353
S3150800206043F00303C2F82032C7E7012128460AF0E5
S3150800207085FE06460028DFD102238DF82530A368A1
S315080020800893638AADF82830A38AADF82630A37D75
S315080020908DF82430A3690B9301238DF806300023AD
S315080020A08DF80730CDF834D00BF002FA0746237FB7
S315080020B0032B12D0022B30D006238DF81830237943
S315080020C07BB306A920680BF04DFA2846FFF760FE99
S315080020D0064638460BF0F2F9AEE7227C1D4BA632CF
S315080020E003EB421202215160E17F94F82000227C22
S315080020F041EA004103EB421241F2D0401150627F9F
S31508002100A07F217C42EA004203EB411341F2CC4115
S315080021105A5003238DF80030CEE72846FFF7F0FE25
S31508002120CAE706A920680BF017FACEE70B4E83E735
S315080021300B4E81E70A4E7FE70CF300080000015BAF
S3150800214000000A5000400A50010012000100100069
S315080021500080005000C0035001001100027000F01A
S31508002160037000F0024B4FF480321A67704700BFC5
S315080021700090005038B505460C46174BD3F8200199
S3150800218000F00700062823D8DFE800F0040A0E1638
S31508002190121A1E00012305B1286004B1236038BD58
S315080021A0FFF7B2F90523F6E7FFF7E4F90323F2E7A9
S315080021B0FFF7FCF90723EEE7FFF7F4F90223EAE74E
S315080021C0FFF7A2F90623E6E7FFF7D4F90423E2E7C7
S315080021D000231846DFE700BF0080005038B50546E3
S315080021E00C46164BD3F8283103F00703013B052BA1
S315080021F020D8DFE803F003131B0F0B17FFF784F94A
S31508002200052305B1286004B1236038BDFFF77CF9C2
S315080022100623F6E7FFF7CAF90723F2E7FFF7AAF955
S315080022200323EEE7FFF7A6F90423EAE7FFF7BAF96F
S315080022300223E6E700231846E3E700BF00800050C4
S3150800224070B582B006460D4600230193104BD3F8AD
S31508002250804104F00304022C16D0032C0FD0012C65
S3150800226007D000240EB1019B336005B12C6002B083
S3150800227070BD002101A8FFF77DFF0F24F2E7FFF7E5
S3150800228095F901900724EDE7FFF78CF90190E9E746
S315080022900080005038B505460C460C4BD3F89032F2
S315080022A003F00303012B05D0022B07D1FFF77EF9B4
S315080022B0072305E0FFF776F9022301E00023184615
S315080022C005B1286004B1236038BD00BF0080005006
S315080022D030B583B005460C4600230193154BD3F859
S315080022E0203203F00703042B21D8DFE803F0030BA1
S315080022F011161B0001230DB1019A2A6004B123604F
S3150800230003B030BD002101A8FFF768FF1123F2E7EB
S31508002310FFF74CF901900723EDE70AF0E4FC01907A
S315080023200A23E8E7FFF786F901900923E3E7002384
S31508002330E1E700BF0080005038B505460C46104B53
S31508002340D3F8400100F00300032815D8DFE800F0B1
S3150800235002080C10012305B1286004B1236038BDBA
S315080023600AF0C1FC0A23F6E7FFF764F90923F2E746
S315080023700AF0BCFC0B23EEE700231846EBE700BF88
S315080023800080005030B583B005460C460023019303
S31508002390144BD3F8603203F00703013B032B1FD815
S315080023A0DFE803F0020E1914002101A8FFF7E2FE88
S315080023B00F230DB1019A2A6004B1236003B030BD22
S315080023C0002101A8FFF7B8FF1023F2E7FFF7EEF8A0
S315080023D001900723EDE7FFF7E5F801900223E8E708
S315080023E00023E6E70080005030B583B005460C466A
S315080023F0002301930C4BD3F8703203F00303012B2F
S3150800240009D0022B0DD114230DB1019A2A6004B10B
S31508002410236003B030BD002101A8FFF78DFF10230C
S31508002420F2E70023F0E700BF0080005038B5054604
S315080024300C46134BD3F8000200F0070004281BD8FB
S31508002440DFE800F003090D111500012305B1286026
S3150800245004B1236038BD0AF046FC0A23F6E7FFF705
S31508002460E9F80923F2E70AF041FC0B23EEE7FFF748
S315080024706BF8800A0E23E9E700231846E6E700BF53
S315080024800080005038B505460C46134BD3F80802B1
S3150800249000F0070004281BD8DFE800F003090D1137
S315080024A01500012305B1286004B1236038BD0AF080
S315080024B01AFC0A23F6E7FFF7BDF80923F2E70AF044
S315080024C015FC0B23EEE7FFF73FF8800A0E23E9E732
S315080024D000231846E6E700BF0080005038B50546D9
S315080024E00C46104BD3F8400200F00300032815D819
S315080024F0DFE800F002080C10012305B1286004B1DA
S31508002500236038BD0AF0EFFB0A23F6E7FFF792F8D7
S315080025100923F2E70AF0EAFB0B23EEE70023184645
S31508002520EBE700BF0080005038B505460C46104B57
S31508002530D3F8600100F00300032815D8DFE800F09F
S3150800254002080C10012305B1286004B1236038BDC8
S315080025500AF0C9FB0A23F6E7FFF76CF80923F2E746
S315080025600AF0C4FB0B23EEE700231846EBE700BF8F
S315080025700080005038B505460C46104BD3F80001CC
S3150800258000F00300032815D8DFE800F002080C1055
S31508002590012305B1286004B1236038BDFEF7EAFFC0
S315080025A00323F6E7FFF746F80923F2E70AF099FB53
S315080025B00823EEE700231846EBE700BF008000502B
S315080025C0B0F5207F20D00ED8B0F5007F16D020D8E1
S315080025D010B1B0F5C07F04D10F4B186FC0F30330AC
S315080025E018E0002016E0B0F5607F05D10A4BD3F855
S315080025F08000C0F301100DE000200BE0064BD3F875
S315080026009000C0F3046005E0034B186FC0F3802008
S3150800261000E00020013070470080005038B50546BC
S315080026200C46174B4FF480329A660020FFF7C8FF16
S3150800263005FB00F0134BDA6902F4803241F671317A
S31508002640D9635B6823F440136CB90F49884207D8ED
S3150800265000210B430B494B600AB10022CA6338BDFF
S315080026604FF48011F5E7002C07DD0849884201D8A8
S315080026700021EEE74FF48011EBE74FF44011E8E74D
S315080026800090005000000350005A6202002D3101EC
S31508002690430905D0012B0DD0022B0DD0002200E0F6
S315080026A0002200F01F0049B102F580520123834041
S315080026B013607047034AF4E7034AF2E702F500524B
S315080026C0F4E700BF648000506880005008B5802099
S315080026D00AF0FEFC034B984203D8034B4FF48032B2
S315080026E01A6708BD005A620200A0005000B583B000
S315080026F000230193B0F5807F00F0398118D9B0F531
S31508002700086F00F03E8140F2DB80B0F5306F00F0D4
S315080027104C8140F20281B0F5386F00F02D81B0F59A
S31508002720406F40F0E68001A90020FFF757FDE0E082
S31508002730802800F2DE802428C0F0DB8024385C285C
S3150800274000F2D78001A353F820F000BF0129000842
S3150800275001290008012900080129000801290008A3
S31508002760F3280008EB280008F32800087929000850
S3150800277011290008F3280008F3280008F3280008A0
S31508002780F3280008F3280008F3280008F3280008AF
S31508002790F3280008F3280008F3280008F32800089F
S315080027A079290008F3280008F3280008F328000808
S315080027B0D528000897290008F3280008F3280008F8
S315080027C0F3280008F3280008F3280008F32800086F
S315080027D0F3280008F3280008F3280008F32800085F
S315080027E0F3280008F3280008F3280008F32800084F
S315080027F001290008F3280008F3280008F328000830
S3150800280037290008F3280008F3280008A12900083A
S31508002810272900088D2900082727000827270008E8
S31508002820F3280008F3280008F3280008F32800080E
S31508002830F3280008F3280008F3280008F3280008FE
S31508002840F3280008F3280008F3280008F3280008EE
S31508002850F3280008F3280008F3280008F3280008DE
S31508002860F3280008F3280008F3280008F3280008CE
S31508002870F3280008F3280008F3280008F3280008BE
S31508002880F3280008F3280008F3280008F3280008AE
S31508002890F3280008F3280008F3280008F32800089E
S315080028A0F3280008F3280008F3280008F32800088E
S315080028B0F3280008F3280008F3280008412900082F
S315080028C0B0F5C06F58D00AD9B0F5E06F63D0B0F54F
S315080028D0F06F1AD101A90020FFF726FE09E0B0F52E
S315080028E0A06F53D0B0F5B06F07D101A90020FFF74C
S315080028F0A7FC019803B05DF804FBB0F5806FF8D12A
S3150800290001A90020FFF736FCF3E7B0F5D06FF0D148
S3150800291001A90020FFF78AFDEBE7B0F5206F3FD04D
S31508002920B0F5286F04D101A90020FFF75DFDE0E7A7
S31508002930B0F5106FDDD101A90020FFF7A3FDD8E798
S315080029401C4B1B6F03F00703013B032BD1D8DFE8B1
S3150800295003F00B02050805230193CAE70323019335
S31508002960C7E708230193C4E702230193C1E701A936
S3150800297000200AF07AFBBCE701A90020FFF7DCFC7F
S31508002980B7E701A90020FFF7F5FDB2E701A9002086
S31508002990FFF79EFCADE701A90020FFF79FFDA8E71A
S315080029A001A90020FFF7EEFCA3E701A90020FFF725
S315080029B071FC9EE700800050044B4FF480125A6663
S315080029C0034B4FF480329A62704700BF0090005064
S315080029D00050005A38B504468020FFF787FE0328C2
S315080029E000F0B580604B4FF480125A665F4B45F68F
S315080029F00E02C3F8802003F580524FF0A061916261
S31508002A0003F500534FF480329A62584B9B6D13F4CA
S31508002A10803FFAD1554B9B6D13F0804FFAD122684F
S31508002A2063681B0543EA0263227B43EA0243627B2F
S31508002A3043EA0233A27B43EA8213E27B13434B4DFC
S31508002A402B61AB6903F00043226943EA826362693A
S31508002A5043EA0263227E43EA0243627E43EA022392
S31508002A60A27E1343AB614FF400624FF440614048C5
S31508002A700AF019FB2B6A23F00F03E269002A46D1F4
S31508002A8011460B43E17E43EA81031A43374B1A6228
S31508002A90E369002B3DD1354A916A364B0B4094F8D1
S31508002AA0201043EA411394F8211043EA011394F8DD
S31508002AB0241043EAC10343F4803393622B4B9A6D87
S31508002AC02D4B9343FAD1294A02F580514FF0807372
S31508002AD08B62136923F47003A06843EA00531361F9
S31508002AE04FF000438B6194F822301BB9234B4FF00B
S31508002AF080729A6294F8233013BB204B4FF48032CD
S31508002B009A621A4B9B6D13F0804FFAD118E0082190
S31508002B10B7E7022B1CD0154A916A164B0B4094F85E
S31508002B20201043EA411394F8221043EA016394F80B
S31508002B30241043EAC10394F8231043EA014393623D
S31508002B4094F825301BB1094B0D4AC3F8802038BDCF
S31508002B50064B00221A619A614FF408524FF47F41DE
S31508002B6008480AF0A0FAD6E7009000500040005A3C
S31508002B703840005AC7FFFEFE030001000060005AF5
S31508002B80F1A7FFFF3440005A014B93F90000704744
S31508002B90E40B0020014B1880704700BFD80B0020BB
S31508002BA0B0F5207F48D02DD8B0F5007F39D04CD865
S31508002BB010B1B0F5C07F24D110B54C1E0AF081FAC9
S31508002BC00AF05CFCFFF7CEFA204A136F23F4704331
S31508002BD043EA04331367FEF7B7FC1D4BD3F884307A
S31508002BE013F0100FF9D11A4BD3F88410C1F38111E1
S31508002BF0C1F102010AF037FC00F02CF8FFF766FD78
S31508002C0010BD7047B0F5607F0AD101390F4AD2F876
S31508002C10803023F0300343EA0113C2F8803070474E
S31508002C2070470139094AD2F8903023F0F85343EA3D
S31508002C300163C2F8903070470139044A136F23F4D0
S31508002C40806343EA8123136770477047008000500A
S31508002C500040005008B54FF4C0700AF039FA054B29
S31508002C60984205D902214FF42070FFF799FF08BD55
S31508002C700121F8E780F0FA0208B5FEF765FC0C4B6F
S31508002C80D3F8843013F0100FF9D1094BD3F8841018
S31508002C90C1F38111C1F102010AF0E5FB012100200F
S31508002CA000F0A6FBFFF7D6FFFFF710FD08BD00BF33
S31508002CB00040005070B50C46B0F5807F00F0DA8110
S31508002CC01FD9B0F5086F00F0618240F2E180B0F5D7
S31508002CD0306F00F0DD8240F23081B0F5386F00F0D9
S31508002CE00782B0F5406F40F02882023C052C00F2BE
S31508002CF08082DFE814F08402860288028A02800253
S31508002D008202802800F219822428C0F0168224380C
S31508002D105C2800F2128201A353F820F0092F00085C
S31508002D20092F0008092F0008092F0008092F000895
S31508002D303B310008DD2E00083B310008F130000861
S31508002D40232F00083B3100083B3100083B310008BF
S31508002D503B3100083B3100083B3100083B31000895
S31508002D603B3100083B3100083B3100083B31000885
S31508002D70F13000083B3100083B3100083B310008C0
S31508002D80A92E00081F3200083B3100083B31000815
S31508002D903B3100083B3100083B3100083B31000855
S31508002DA03B3100083B3100083B3100083B31000845
S31508002DB03B3100083B3100083B3100083B31000835
S31508002DC0092F00083B3100083B3100083B31000859
S31508002DD0712F00083B3100083B3100084B320008D0
S31508002DE0492F0008B9310008EB2C0008EB2C000825
S31508002DF03B3100083B3100083B3100083B310008F5
S31508002E003B3100083B3100083B3100083B310008E4
S31508002E103B3100083B3100083B3100083B310008D4
S31508002E203B3100083B3100083B3100083B310008C4
S31508002E303B3100083B3100083B3100083B310008B4
S31508002E403B3100083B3100083B3100083B310008A4
S31508002E503B3100083B3100083B3100083B31000894
S31508002E603B3100083B3100083B3100083B31000884
S31508002E703B3100083B3100083B3100083B31000874
S31508002E803B3100083B3100083B310008892F000818
S31508002E90B0F5C06F00F02C8119D9B0F5E06F00F0DD
S31508002EA0BE81B0F5F06F38D10A2C00F039810B2CB1
S31508002EB000F03881092C00F031810021AB4AD2F8A4
S31508002EC0603123F003030B43C2F8603135E1B0F5F6
S31508002ED0A06F00F07181B0F5B06F11D1072C00F02A
S31508002EE0AF800F2C00F0AE80022C00D000249F4A41
S31508002EF0D2F8803123F003032343C2F880311CE162
S31508002F00B0F5806F40F01981023C052C00F29C80D8
S31508002F10DFE804F0A09CA4A6A29EB0F5D06F40F00E
S31508002F200C81093C052C00F2FF80DFE814F007014C
S31508002F300D010901FD00FD000B01B0F5206F00F041
S31508002F408481B0F5286F0FD1102C00F09D81142CC8
S31508002F5040F09C810221854AD2F8703223F003039F
S31508002F600B43C2F87032E8E0B0F5106F40F0E58028
S31508002F70093C052C00F2EA80DFE814F0F2000601AD
S31508002F80F400E800E800F6008B1E062B05D8DFE8FB
S31508002F9003F0513F045404044E0000252E46012137
S31508002FA0022000F0DFF90AF08CF80AF067FAFFF75A
S31508002FB0D9F86E4A136F23F0070333431367FEF7F6
S31508002FC0C3FA6B4BD3F8843013F0100FF9D1684B62
S31508002FD0D3F88410C1F38111C1F102010AF043FA52
S31508002FE00121002000F004FAFFF734FEFFF76EFB1C
S31508002FF0002D40F0A280032C40F09F805D4B4FF4DB
S3150800300080329A625C4B9B6D13F0804FFAD194E044
S315080030105A4B4FF480125A66574B9D6AC5F30065A2
S3150800302003F580534FF480329A620E46B7E70025BF
S315080030300426B4E700250126B1E700250226AEE7F7
S31508003040032454E7012452E700210AE0022108E09C
S31508003050042106E0032104E0052102E0062100E040
S315080030600121424AD2F8203123F007030B43C2F864
S31508003070203162E00C2921D002D910295DD103E064
S31508003080A1F10904022C58D8384B596E03F5805320
S315080030904FF480325A663A4A536A43F00103536240
S315080030A011F4803F03D1374B4FF480325A664FF004
S315080030B0E022136923F0040313613EE02B4B596E9B
S315080030C003F580534FF480325A662D4A536A23F02B
S315080030D00103536211F4803F03D12A4B4FF4803227
S315080030E05A664FF0E022136943F00403136124E0A3
S315080030F00A2C0FD00B2C0FD0092C09D000211B4A03
S31508003100D2F8403123F003030B43C2F8403114E0F0
S315080031100221F4E70121F2E70321F0E70221CDE6D7
S315080031200121CBE60321C9E60021104AD2F8003274
S3150800313023F007030B43C2F8003270BD0221F4E7FF
S315080031400321F2E70421F0E70121EEE70021074A0F
S31508003150D2F8083223F007030B43C2F80832ECE72B
S315080031600221F4E70321F2E70421F0E7008000508A
S31508003170004000500060005A0040005A009000507D
S3150800318000C0075000A000500121E0E708290FD031
S3150800319009290FD0032909D00021464AD2F800315F
S315080031A023F003030B43C2F80031C6E70121F4E715
S315080031B00321F2E70221F0E7073C0A2C07D8DFE8EB
S315080031C004F0100614120606060606061600002166
S315080031D0384AD2F8203223F007030B43C2F82032CC
S315080031E0ABE70221F4E70321F2E70421F0E7012126
S315080031F0EEE700210AE0052108E0042106E00321A4
S3150800320004E0022102E0062100E00121294AD2F861
S31508003210283123F007030B43C2F828318DE70A2C1F
S315080032200FD00B2C0FD0092C09D00021214AD2F837
S31508003230403223F003030B43C2F840327DE70221F4
S31508003240F4E70121F2E70321F0E7023C0E2C09D846
S31508003250DFE804F01808080808120808080808082B
S31508003260081416000021134AD2F8603223F0070327
S315080032700B43C2F8603260E70421F4E70121F2E764
S315080032800221F0E70321EEE7012164E6002162E668
S3150800329002290BD007290BD10221064AD2F890320F
S315080032A023F003030B43C2F8903246E70121F4E703
S315080032B00021F2E700800050002807DB00F160409B
S315080032C000F5614090F800030009704700F00F0010
S315080032D0014B185C0009704714ED00E04209064BE3
S315080032E053F8223000F01F0023FA00F080F00100A6
S315080032F000F00100704700BF00E100E038B5EFF3C9
S31508003300108313F0010F1BD10446FFF7E7FF0546AC
S31508003310B8B92046FFF7D0FF0446EFF3118313B17F
S31508003320B0EB131F0FD2094B5B68C3F3080343B115
S31508003330103B58B2FFF7C0FFA04202D8012500E0B3
S315080033400125284638BD0125FBE700BF00ED00E052
S31508003350034AD36E23F0300301790B43D3667047D3
S3150800336000400050F8B50446204BD3F8843013F0DB
S31508003370100FF9D11D4BD3F88430C3F381139C4247
S315080033802DD0FEF7C7F80646012C11D00AF089F8A9
S315080033900546164F07F500534FF000725A66204649
S315080033A00AF08FF8621E4FF4806393403B6706E08D
S315080033B001210AF058F8E9E70C4BD3F884300B4B97
S315080033C05B6E13F0007F05D1084BD3F8843013F0F9
S315080033D0200FF1D028460AF068F8022C00D0F8BD74
S315080033E0002130460AF03FF8F9E700BF00400050D8
S315080033F010B50C46034650B1094A127812B1094A6B
S31508003400934208D921460220FFF7ACFF10BDFEF70C
S3150800341081F80346F0E721460120FFF7A3FFF5E709
S31508003420D4120020005A620238B52F4B4FF00042E2
S315080034305A6603F50B235C6C04F001044AF6CD3298
S315080034401A64E8B9294B5B6B13F00103FAD1274AD2
S31508003450556815F0010539D002F500520121516071
S315080034601A462249096B11F0010F04D120498A42F4
S3150800347001D80132F5E71E498A422FD81D4625E0B4
S3150800348000231A4A126B12F0080F04D0184A934206
S3150800349001D80133F5E7164A934221D8134B03F5B1
S315080034A000522021916203F5805301225A600023BD
S315080034B000E001330D4A926A12F0200F02D10C4A3D
S315080034C09342F6D90A4A93420CD8002514B1074B01
S315080034D0084A1A640AF0F7FC284638BD0725F5E7B6
S315080034E00725F3E70725F1E700900050004009504B
S315080034F03F420F003254FFFF10B51A4B4FF00042FF
S315080035005A6603F50B235C6C04F001044AF6CD32C7
S315080035101A6443785B0043F00103134AD363134BE1
S315080035205B6B13F00B0FFAD1104A536823F4F87348
S31508003530817843EA01135360C178437943EA01234A
S3150800354093600179837943EA012313610078FFF7D1
S315080035506BFF14B1054B064A1A640AF0B4FC012045
S3150800356010BD00BF009000500040005000400950B8
S315080035703254FFFF10B50F2800D90F20124B5C6E8E
S3150800358003F580534FF000425A6603F50B235A6C35
S3150800359002F001024AF6CD3119640C4B5B6B13F04D
S315080035A0800FFAD109490B6A23F00F0303430B6214
S315080035B00AB1074A0A64002C03DB064B4FF00042A7
S315080035C05A660AF080FC10BD008000500040095081
S315080035D03254FFFF00A0005010B5134B5C6E03F584
S315080035E080534FF000425A6603F50B235A6C02F0DB
S315080035F001024AF6CD3119640C4B5B6B13F0800F50
S31508003600FAD10A490B6A23F4F85343EA00230B62FA
S315080036100AB1074A0A64002C03DB064B4FF0004246
S315080036205A660AF050FC10BD008000500040095050
S315080036303254FFFF00A00050084B98420AD0084BAE
S31508003640984209D003F58043984201D0002070477C
S315080036505820704756207047572070470000015B76
S3150800366000000A5010B5044609F02CFF042307E0B1
S3150800367004F5805304221A6104F500531A610B46B7
S31508003680591E002BF4D1202323610023E360A36095
S3150800369041F202026261A3614FF4A0226262E36111
S315080036A02362A362E3626363236504F50052024959
S315080036B0D164236310BD00BFFF3F0D03F8B5044670
S315080036C015460846E1B1A36813F0010F34D06668C1
S315080036D0B0FBF5F0451E16F001062BD0636D13F00E
S315080036E0280FFBD1A36C13F0030F0FD1A36C13F0B3
S315080036F0010F1BD1A36C13F0020F19D1002706E0A6
S315080037002046FFF799FF09F0E3FCDCE7052720468A
S3150800371009F0D8FE236923F07F4343EA0563236152
S3150800372046B33946204609F0ECFE23E00927EEE7C2
S315080037300627ECE70027EDE76368A36803F0E003D4
S31508003740402B1DD017D9602B1ED0802B12D10123F8
S31508003750400105FB03F3B0FBF3F020380B4A02EAFD
S31508003760C002636D13F0010FFBD12263636D13F082
S31508003770010FFBD1F8BD2BB1202BFBD10823E7E7BE
S315080037800623E5E71023E3E70423E1E7F8FF7F00D4
S3150800379070B504460D461646436823B1636DC3F3F8
S315080037A00B03002BFAD12046FFF75CFF636923F46D
S315080037B04C5323F00F036A7B1343EA8913432A8A7F
S315080037C013436361A36823F0804323F0E2032A7B53
S315080037D013432A7E13436A691343A360AB681BB974
S315080037E0A36843F00043A360EA69002A70D0A16881
S315080037F0694B0B40117A43EA8153917A43EA414374
S31508003800918801F4C0410B43517843EA8103517B07
S3150800381043EAC103917B43EA0113927843EA822380
S31508003820A360E2685D4B1340EA6911690B4351696D
S315080038300B43917943EA8123D27943EA4223E36031
S31508003840EB691B78012B01D0032B03D1E36843F006
S315080038500403E360EB691B78023BDBB2012B51D909
S315080038604F4B9C426BD04F4B9C426AD003F580432A
S315080038709C4262D04FF0FF3303F593735B0103F16B
S31508003880A04303F5703302225A60EB695A7A04F5AD
S3150800389080539A62EB695B7A1BB1E36843F4006371
S315080038A0E360EB69DB7A63B1E36843F40043E36002
S315080038B03B4B9C4247D03B4B9C424BD03A4B9C429D
S315080038C04FD0636A23F00303EA69D27B134363622A
S315080038D03EB196F82030002B4AD004F580530122D9
S315080038E01A620521204609F00CFEAA68002A4ED164
S315080038F02978204609F005FEA36CDB4313F4405FE4
S31508003900FAD170BD264B9C4213D0264B9C4212D04E
S3150800391003F580439C420AD04FF0FF33A6335B0180
S3150800392003F1A04303F5703302225A60ADE7022380
S31508003930F4E70023F2E70123F0E702239CE70023DC
S315080039409AE7012398E7EB691B7B03F00F03174AF5
S315080039505366B0E7EB691B7B03F00F03134A136743
S31508003960ACE7EB691B7B03F00F03104AD367A8E7A4
S31508003970E36923F0090396F82220134396F82120D9
S31508003980134343F0010304F58052D361A9E769683C
S315080039902046FFF793FEABE7E39BBDFFFFF9F087F1
S315080039A00000015B00000A5000400A5000900350D6
S315080039B02DE9F8430D4614461E469DF820809DF8CD
S315080039C02470072A29D8930000FA03F203219940A4
S315080039D0214809F0CDFD4FF00009072C29D8A10090
S315080039E005F003028A40032303FA01F11B4809F094
S315080039F0BFFD5EB31A4A0123A3401360B8F1000F56
S31508003A0026D0184A13600122A2401749C1F820247B
S31508003A1007B3164A1360BDE8F883A2F108094FEA0E
S31508003A20890300FA03F203219940114809F0A0FD21
S31508003A30D3E74FEA890905F0030202FA09F20321DE
S31508003A4001FA09F10B4809F093FDD2E70A4AD2E7D1
S31508003A500A4AD7E70A4ADDE700C4035008C40350F8
S31508003A6010D4035014D4035000E0035024D4035058
S31508003A7004C403500CC4035010E4035014E4035068
S31508003A8024E40350F8B504460D461E4617463AB1D7
S31508003A90FBB101228A4000EB400109011D4B5A5037
S31508003AA0072D1ED8A90004EB44031B0107FA01F2EF
S31508003AB00F2000FA01F11848184409F059FD3FB9DA
S31508003AC0FEB10122AA4004EB44042401114B1A5109
S31508003AD0F8BD01228A4000EB400109010F4B5A50FC
S31508003AE0DEE7A5F108039B0004EB440C4FEA0C1C27
S31508003AF007FA03F20F2199400948604409F038FD96
S31508003B00DDE70122AA4004EB44042401034B1A51C1
S31508003B10DEE700BF40D0035034C0035040E00350F6
S31508003B203CC00350436913F0807FFBD100F5005079
S31508003B3001234360024B5B6813F0020FFAD170470A
S31508003B400040005938B5044609F020FD2D4BE360C6
S31508003B5062692D4B1340002BFAD1A361C4F8983043
S31508003B60636913F4401FFBD100E0636F636913F4C4
S31508003B70807FFAD1A36F002BF7D101E0D4F8843007
S31508003B80636913F4007FF9D1D4F88850002DF5D174
S31508003B90E36FD4F88C302046FFF7C4FF0023A360F8
S31508003BA02361E362236230232367C4F880302B46FF
S31508003BB00DE004EB031242F2600191645A1D1101F3
S31508003BC004EB021211486050002151600133104A7B
S31508003BD0944203D02A469342EBD307E00222FAE73F
S31508003BE005F12803002244F823200135084B9C429E
S31508003BF001D10F2DF4D904F50054064B6362A36274
S31508003C0038BD00BF120002005200010000C0028049
S31508003C10004000598F330F8008B50B4669B103F58C
S31508003C20742303F23F230E4AA2FB0320800C0138BB
S31508003C307F2828BF7F20C0B208BD2A2009F048FA8D
S31508003C40034650B1074A9042E9D9074A9268C2F337
S31508003C5002720132B0FBF2F3E1E70123DFE700BFAE
S31508003C6083DE1B43005A62020040005910B50B4B15
S31508003C70994228BF19460C4610465AB12044431E9D
S31508003C80B3FBF4F0A34200D30138032800D903207C
S31508003C90C0B210BD2A2009F01BFAEFE7005A6202EB
S31508003CA010B5BBB90F4C8C4200D30C46A2B19DF897
S31508003CB008300133B2FBF3F22244013AB2FBF4F0C6
S31508003CC0A24200D3013840F2FF33984228BF184673
S31508003CD080B210BD044CE6E72A2009F0F9F902463D
S31508003CE0E5E700BF80969800404B4C002DE9F04F61
S31508003CF02DED028B83B005460C4617460022CE49A9
S31508003D00FFF7B4FF94F80590814500D2814628460E
S31508003D10FFF708FF207910B3E3781B0103F030039F
S31508003D20000400F4FE0003434FEA097202F0E04281
S31508003D30134322780AB143F0020362780AB143F0CA
S31508003D400403A2780AB143F00803AB60E3882B6149
S31508003D502289638943EA02432B620024D6E02A209B
S31508003D6009F0B6F90146B44B984201D3B0FBF9F114
S31508003D702846FFF751FFCFE7B049DAE0B04AD2F854
S31508003D8080211FFA82FAB8F1000F40F0B880032BA1
S31508003D9020D0042B00F01281052B00F019819FED2D
S31508003DA0A97A1FE0A64AD2F880214FEA124AEAE722
S31508003DB0A34AD2F884211FFA82FAE4E7A04AD2F885
S31508003DC084214FEA124ADEE79D4AD2F880211FFA7B
S31508003DD082FAD8E79A4BD3F88C311B1407EE903A3F
S31508003DE0B8EEE77A2AF4C0484FEA88481AF4004F32
S31508003DF040F0F98005EB04139B6CC3F3820301338F
S31508003E004FF0010B0BFA03FBBBF1020F00F0EE803B
S31508003E108B4AD2F890311BB207EE903AF8EEE77A61
S31508003E2077EEC77A07EE10BAB8EEC77AF6EE006AEA
S31508003E3027EE267AC7EE876AD2F888311BB207EED4
S31508003E40903AF8EEE77A37EEA68A04EB840307EB96
S31508003E508303D878002800F0D48004EB840307EBAA
S31508003E608303D3ED037AF8EE677ADFED776A87EE98
S31508003E70A67AF7EE046AC6EE877A67EE887AB1EE16
S31508003E80007A67EE877A07EE10BAB8EEC77A9FED22
S31508003E906F6AC6EE076A9FED6E7A26EE877A77EE28
S31508003EA0877AB8F1004F0FD007EE10AAB8EEC77A96
S31508003EB0DFED686A27EE267ADFED676A77EEA67A7F
S31508003EC067EE277A77EEE67AF5EEC07AF1EE10FA23
S31508003ED040F3A880F1EE677AB6EE007A77EEC77AF5
S31508003EE0FDEEE77A17EE903AB3F5003FC0F2BC80D4
S31508003EF06FEA58436FEA4343621D1201AB50C6F39B
S31508003F000906631D05EB03135E600134534B9D429E
S31508003F1040F0B580012C00F2B28004EB840307EB75
S31508003F20830217F823809668B8F1000F7FF424AF50
S31508003F304B49CDF80090434600222846FFF7B0FECD
S31508003F40B6B2864238BF064605EB0412936C45495D
S31508003F50194008F003030B4304EB840107EB8101C6
S31508003F604878800000F01C0003438878000300F4BA
S31508003F70E0400343C878000400F4E0200343087CCB
S31508003F80400500F4600003430979090701F0405130
S31508003F900B439364936CC3F302335A1E042A3FF609
S31508003FA013AF01A151F822F07D3D00087D3D0008C0
S31508003FB0A53D0008B13D0008BD3D0008204BD3F8DB
S31508003FC08C311B145B0007EE903AB8EEE77A09E7E6
S31508003FD01B4BD3F88C311B1403EB430307EE903AC3
S31508003FE0B8EEE77AFEE648F0004803E7144BD3F844
S31508003FF08C311BB207EE903AF8EEE77A37EE878AED
S3150800400023E709F027FB07EE900AF8EE677ADFED5B
S315080040100E6A87EEA67AF7EE046AC6EE877A68EE27
S31508004020277A2CE7B6EE007A77EE677AFDEEE77A1E
S3150800403017EE903A58E700BF005A6202404B4C0010
S315080040400080E00F0000000000007A440000804372
S3150800405000002044000000380000004900400059D4
S3150800406080969800E08F18CF13F5003F02DA48F4DF
S31508004070003341E7C3F3110343EA08033CE7284644
S3150800408009F084FA03B0BDEC028BBDE8F08F00BFDF
S3150800409010B50C4B4FF48002C3F88020BFF34F8F46
S315080040A0BFF36F8F084B00245C65FF229A625C6041
S315080040B021462020FEF7ECFA21462120FEF7E8FAF1
S315080040C010BD00BF00E100E00000045029B9044A11
S315080040D0012303FA00F010607047024AF8E700BFB0
S315080040E0401004504020045010B5044601212020F9
S315080040F0FEF7CEFA01212120FEF7CAFA114B01225A
S315080041005A60227812069A606178A27842EA0142D9
S315080041109A61FF229A6200229A631A644FF000425B
S315080041205A6503F500534FF0FF321A65064A4FF4F5
S315080041308001C2F88011E3781B01DBB282F81633DE
S31508004140116010BD0000045000E100E070B50C4697
S31508004150C3B201259D40214E06F500531D65096829
S31508004160830003F1A04303F588235960637B00EBC2
S31508004170400106EB01110B6694F80AC0E37A1B05A9
S3150800418043EA0C4394F80CC043EA4C53CB6522F03F
S3150800419003020A6709F08CF9736D2B437365237A5A
S315080041A013B1336C2B433364637A1BB10B4A936B9D
S315080041B02B4393632379A27942EA0342074B03F51B
S315080041C000518A616679E27942EA064203F580542B
S315080041D0A2614D639D6409F071F970BD0000045039
S315080041E010B5C0B20124844009F062F9044B5A6D37
S315080041F022EA04025A659C6209F060F910BD00BF04
S315080042000000045010B5C0B20124844009F050F9EA
S31508004210084BDB6A234205D1064B5B6B9C4306D0F1
S31508004220002400E0002409F049F9204610BD0124C5
S31508004230F9E700BF00000450074B4FF480325A6676
S3150800424003F5E6239B69C3F38512827003F03F02E8
S3150800425042701B0B0370704700900050074B9B6819
S3150800426013F0020FFAD1054B5B6813F0020FF5D174
S31508004270024BDB69002BF1D1704700BF00800A5062
S31508004280064B5B6813F0010F03D0044BDB69002B68
S31508004290F6D1024B02221A61704700BF00800A500D
S315080042A008B5FFF7DBFF034B03F5805101224A608F
S315080042B01A6108BD00800A5008B5054B5B68012BDA
S315080042C000D008BDFFF7DCFF024B01225A60F8E771
S315080042D000800A5000A00A5010B50446FFF7BEFF3A
S315080042E0084B5B68012B05D0237843B10122054BA7
S315080042F0DA6010BDFFF7E0FFFFF7B0FFF4E7002232
S31508004300F5E700BF00800A50D8B90B78D3B101236E
S315080043104A6812B1127843EAC2034A78A2B1022265
S3150800432013438A6812B1127843EA82138A786AB10B
S3150800433004221343CA6812B1127843EA4223044A94
S31508004340936470470023E3E70022E9E70022F0E7D9
S3150800435000800A5008B9014B5964704700900A500A
S3150800436008B9014B5964704700A00A5008B9014BB7
S315080043701964704700A00A5010B9024B186C7047B0
S315080043800020704700800A5048B911B1012903D0AE
S315080043907047044BD86C7047024B186D7047002065
S315080043A0704700BF00800A5040B911B1012903D0F7
S315080043B07047034BDA647047014B1A65704700BFB4
S315080043C000800A5038B5044609F090FD064DA4460B
S315080043D0BCE80F000FC5BCE80F000FC59CE803003A
S315080043E085E80300002038BDD812002047F6FF7381
S315080043F09A427DD009297DD870B5414B13F801E062
S31508004400BEF1030F78D83F4B03EBCE0191F802C0FB
S31508004410604613F83E30012B26D03A4B03EBCE0309
S315080044205C68002C6AD0B4F90030934204DBB4F916
S315080044300230934200DC1346A288FF2A2CD00021C2
S315080044402826C8221D46D21A92FBF6F20A4412B250
S315080044502C4B03EBCE0393F801E0964501DD002AC9
S315080044602FDA0EF1FF322CE0CB78A3EB0C030024F5
S315080044709C420ED2191BA3EB5101224800EBCE0039
S31508004480406830F91100904201DC0C46F0E74B1EFB
S31508004490EEE76344D8B230E0B4F90620B4F9086010
S315080044A00121CFE75C331849A1FB03139B090132AD
S315080044B012B2164696450FDD04EBC2018988994269
S315080044C00AD304EBC2018B68B1F9061001FB053368
S315080044D0002BE7DA0023E5E7013E04EBC604A288D1
S315080044E09A4200D31A46624500D31046C0B204E089
S315080044F0FF20704700207047002070BD0020FCE7B1
S315080045002CF30008D8120020D34D621009296FD861
S315080045103A4B5B5C032B6DD8394911F833100129E6
S315080045202AD010B4364901EBC3014C68002C63D07D
S31508004530201D334901EBC3018978914234D23049B1
S3150800454001EBC301C978914233D92D4901EBC30365
S3150800455093F801C00CF1FF3C5FFA8CFCA388FF2B93
S315080045602AD00023634529D2591C30F831109142CC
S3150800457024D30133DBB2F5E7214901EBC301C9783E
S31508004580914200D20A461E4800EBC3008078121AF0
S31508004590D2B2091A8A4200DD0022194901EBC30387
S315080045A05B6833F912007047B4F902005DF8044BF2
S315080045B07047B4F90000F9E70123D3E74FF47A719D
S315080045C001FB02F200EBC3004368D31AB0F90220DC
S315080045D002EBD27103EB610393FBF2F3B4F900002B
S315080045E09842E3DBB4F902009842DFDC18B2DDE753
S315080045F004487047034870470248D7E72CF3000879
S31508004600D81200200080FFFF08B50348FFF7DAFE3E
S31508004610012009F08EFC08BD38F3000830B583B0D8
S31508004620044609F088FC08B103B030BD6946204647
S3150800463009F05EFC00B1FEE79DF80030124A1278D8
S315080046409342F1D00E2B06D164250F49204609F076
S315080046503CFC28B1FEE7204604F08AFB0546F4E751
S315080046602946204609F046FC00B1FEE7064B1B78B2
S315080046700A2BD9D16946204609F03AFC9DF8002054
S31508004680014B1A70D0E700BF5809002070B58AB0F0
S3150800469004460D462822002168460AF021F803231D
S315080046A000934FF41653ADF8063002228DF8082011
S315080046B001238DF809308DF80A208DF80B30642314
S315080046C003934FF47A7306936946204604F0A0FBD9
S315080046D00646C0B90C3D102D7CD8DFE805F0091B4D
S315080046E021272D33393F454B51575D63696F750057
S315080046F03949204609F051FC06462EB9FF212046C5
S3150800470009F084FC064616B1204609F05FFC3046DF
S315080047100AB070BD3149204609F03FFC0646ECE771
S315080047202F49204609F039FC0646E6E72D4920467A
S3150800473009F033FC0646E0E72B49204609F02DFC34
S315080047400646DAE72949204609F027FC0646D4E753
S315080047502749204609F021FC0646CEE7254920468A
S3150800476009F01BFC0646C8E72349204609F015FC54
S315080047700646C2E72149204609F00FFC0646BCE773
S315080047801F49204609F009FC0646B6E71D4920469A
S3150800479009F003FC0646B0E71B49204609F0FDFB75
S315080047A00646AAE71949204609F0F7FB0646A4E794
S315080047B01749204609F0F1FB06469EE715492046AB
S315080047C009F0EBFB064698E71349204609F0E5FB96
S315080047D0064692E7012697E780F6000880F5000866
S315080047E0C0F6000860F6000820F60008C0F50008C4
S315080047F000F60008A0F5000840F60008E0F50008F5
S31508004800A0F6000860F5000840F5000820F5000845
S3150800481000F50008E0F40008C0F4000800B587B009
S31508004820002301930293039304930593044B029385
S3150800483001A94FF0FF3009F0A6FB07B05DF804FBAD
S31508004840006A180000B583B0094B93E8030000908E
S31508004850ADF80410090C8DF806106846FEF74CFEF4
S315080048600920FEF787FE002003B05DF804FB00BFB1
S3150800487090F4000810B582B0074A536F43F001035D
S315080048805367002400948DF804406846FEF760FDDF
S31508004890204602B010BD00BF0040005010B58AB0D7
S315080048A0EC461B4C0FCCACE80F000FCCACE80F0065
S315080048B094E803008CE80300164BD3F84C3113F444
S315080048C0002F07D0144B1C884FF6FF739C4205D166
S315080048D08C2403E00F4BD3F85041E4B28DF819400D
S315080048E0FEF752F9241803D4FF2C02DDFF2400E05A
S315080048F000248DF818400948FCF742FE6846FEF782
S3150800490069F83220FEF746F900200AB010BD00BF4C
S3150800491098F400080080E00F0001E00FC01753026A
S315080049206FF0040307E003F00F010A4A0A44502116
S31508004930117601335BB24B2B09DC002BF3DB03F159
S31508004940604202F56142502182F80013F1E7002027
S31508004950704700BFFCEC00E010B5044608F0A1FD66
S31508004960024B1C6008F0A1FD002010BD00130020BA
S3150800497010B508F096FD034B1C6808F096FD204616
S3150800498010BD00BF00130020F0B58DB016461C46BA
S31508004990129D002306930793089309930A930B9392
S315080049A023790BB18DF8183001238DF81E3006AB2C
S315080049B0F361637993B10123049303937A4B0293CA
S315080049C07A4B019300230093794B0A46294600F057
S315080049D0D3F9074620B138460DB0F0BD0223EBE700
S315080049E0A368EB63E369EB64237E85F84830636963
S315080049F06B64237C85F84030636A6B6594F82030D5
S31508004A0085F85030E36AEB6594F8283085F8583015
S31508004A102368AB6301213A20FDF73AFE01230422FD
S31508004A206169207CFFF72EF801230222E169207EC6
S31508004A30FFF728F80023337085F860300121A06855
S31508004A40FDF726FE6379002B41D05A4AD2F8283161
S31508004A5023F0070343F00103C2F82831A368562B55
S31508004A6002D0B3F5A06F08D1524AD2F8203223F00B
S31508004A70070343F00103C2F820323146206808F0E4
S31508004A806BFD95F8603043F0040385F86030E26802
S31508004A90494B263203EB421210215160217C606992
S31508004AA0E26841EA004103EB4212C2F8DC14227EB6
S31508004AB0E069E16842EA004203EB4113C3F8D424F3
S31508004AC02379032B6ED8DFE803F0511A41490121F7
S31508004AD03620FDF7DDFDA368562B02D0B3F5A06F8F
S31508004AE008D1344AD2F8203223F0070343F00303EF
S31508004AF0C2F820323146206808F034FDC7E795F839
S31508004B00603043F0010385F8603000260023022256
S31508004B10616A94F82000FEF7B5FF94F82020616AD0
S31508004B20E36842EA01425B0103F1A04303F57033EF
S31508004B3041F2CC415A50DEB9AB6B03F580530422DF
S31508004B401A650521206808F0DCFC44E795F8603012
S31508004B5043F0020385F860300126ECE795F86030EB
S31508004B6043F0030385F860300126CFE70026E2E725
S31508004B7000230422E16A94F82800FEF783FFE3681D
S31508004B800D4AA63302EB43130221596094F82830E4
S31508004B90E06AE16843EA004302EB411241F2D04180
S31508004BA05350C9E7232716E739D70008B5D70008B1
S31508004BB0E9D700080080005000C00350002807DB32
S31508004BC000F01F02400901239340024A42F82030B0
S31508004BD0704700BF00E100E000280CDB00F01F0270
S31508004BE04009012393402030034A42F82030BFF39E
S31508004BF04F8FBFF36F8F704700E100E010B586B0A6
S31508004C001446137A03EB43031B0103F1A04303F590
S31508004C108023DA6EE16823690B449A4216D06169EB
S31508004C20914215D38B1AABB90123637694F82D30CC
S31508004C304BB1002384F83530E369132120469847A1
S31508004C40636A20469847002006B010BD0A46E6E784
S31508004C509B1AE8E7049406490391002102910193FF
S31508004C60012300936368216808F043F8EBE700BF67
S31508004C70FD4B000838B504460568FFF779FE8442FF
S31508004C8022D095F93630002B08DB03F01F015B09AB
S31508004C9001228A4060330E4941F8232095F93600EF
S31508004CA0FFF79AFF287AFCF7B1FE287AFCF712FE7E
S31508004CB0FCF7EAFD002323606360A3602361636158
S31508004CC0AB6A2846984738BD0020FFF745FED8E767
S31508004CD000E100E030B589B0044600234376007A47
S31508004CE0FCF754FE207A00EB40031B0103F1A043B6
S31508004CF003F58023DA6EE56823692B449A4219D0B6
S31508004D006369934218D0012323760DF11F01FCF73E
S31508004D10FBFE9DF81F3043B30DF11E01207AFCF708
S31508004D20C5FE9DF81E3003BB22460021207AFFF7F8
S31508004D3065FF1AE02A46E3E700232376656194F8BF
S31508004D402D3003B12563636A204698472369049486
S31508004D50084A039200220292019301230093636892
S31508004D602A462168207A07F0C4FF207AFCF72EFE2F
S31508004D7009B030BDFD4B0008F0B587B006460C46B5
S31508004D8015461F4638220021204609F0A9FC95E859
S31508004D90030084E8030000232376EB68E3602A69AE
S31508004DA0226163612A7D84F82C20AA7D84F82D204F
S31508004DB02363012384F8343084F83530E7610C9B8B
S31508004DC023620D9B63620E9BA36295F9083084F8F3
S31508004DD036303460214B7360214BB360214B33610D
S31508004DE0214B7361214BF360FCF79EFD10B1204AFD
S31508004DF090422DD1002104F10800FCF713FD48BBB1
S31508004E00236904941B4A0392002202920193012308
S31508004E1000936368E2682168207A07F06AFF04460F
S31508004E20D0B995F90830002B08DB03F01F015B09A0
S31508004E3001228A406033104941F8232095F9080079
S31508004E40FFF7BCFE3046FFF787FD204607B0F0BDEA
S31508004E501024FAE71024F8E71024F6E7ABD900087F
S31508004E60A1DA0008D3D80008D9D80008754C00087C
S31508004E70038000F0FD4B000800E100E0BFF34F8F10
S31508004E800549CA6802F4E062044B1343CB60BFF3DA
S31508004E904F8F00BFFDE700BF00ED00E00400FA05F4
S31508004EA0BFF35F8F074B5A6A22F480325A62D3F8EF
S31508004EB0942022F00102C3F89420BFF34F8FBFF36A
S31508004EC06F8F704700ED00E070B5FFF7E9FF234CE0
S31508004ED0234EB4423ED026F01F05203DA0220021D5
S31508004EE0204808F0F6FDB5F1005F0DD31E490B68A2
S31508004EF045F001051D4AC2F898301D48C2F89C00C5
S31508004F00C2F8A05001330B60B44210D01F3424F00D
S31508004F101F0444F0030414490B68144AC2F8983075
S31508004F20C2F89C401348C2F8A00001330B60BFF3D7
S31508004F305F8F0E4B0522C3F894205A6A42F48032DA
S31508004F405A62BFF34F8FBFF36F8FBFF34F8FBFF315
S31508004F506F8F70BD4FF08045C0E700BFEC0B002097
S31508004F60EC0B002090ED00E00413002000ED00E0BB
S31508004F7003000020E1FFFF3F4161114B1B68CBB1E5
S31508004F8010B4002403E0891A41611C469B6823B1CA
S31508004F905A698A42F7D9002AF5D044B1A0608360DD
S31508004FA013B15A69521A5A615DF8044B7047044A9C
S31508004FB01060F4E7024B186000238360704700BF57
S31508004FC0101300200E4B1B68002201E01A469B684E
S31508004FD00BB18342FAD183420ED14AB183689360FA
S31508004FE083685BB15A6941690A445A61002070476F
S31508004FF08268034B1A60F3E7022070470020704767
S31508005000101300200A4B1B6800220A490A7005E0A3
S31508005010084B01221A70704759690A44012A06D8B2
S31508005020D98811F0020FF3D19B68002BF4D1704791
S3150800503010130020D217002008B500F053F90B4BC7
S315080050401B680B4A1268821A03E0521A002159613A
S315080050509B683BB132B159699142F6D3891A5961B5
S315080050600022F5E7024B186008BD00BF10130020A8
S315080050700C13002010B50B4B1B685B695BB10A4A21
S3150800508014681C44022008F04AFD204600F038F94E
S31508005090FFF7B8FF10BD022008F041FD022000F01E
S315080050A085F9F5E7101300200C13002010B508F059
S315080050B0FFF90446144B1B78DBB9144A1360144AEB
S315080050C01360144A138000F0D1F8012008F027FD78
S315080050D008F053FD0246104B186078B100230F48BC
S315080050E040F2E73105F06AFE0D4B1860064B0122C7
S315080050F01A70204608F0E2F9002010BD204608F094
S31508005100DDF92320F9E700BFD3170020101300208C
S315080051100C130020B01700201413002018FCFFFF02
S31508005120081300202DE9F843044610F0010F04D1B6
S3150800513014F0020F10D1BDE8F883494A13889BB2D0
S3150800514001339BB21380FFF777FF464B1B68002B92
S31508005150EED0FFF78FFFEBE708F0AAF90546FFF751
S315080051606BFF00273E4643E09B683BB15A692AB964
S3150800517021791A799142F7D91C46F5E7284608F0AD
S315080051809DF92569002D3AD10025A8462F46002D00
S3150800519046D0236903B3FDB9B8EB0707A38B6BB1F8
S315080051A0E28B13449BB2E383B3F57A7F06D3A3F568
S315080051B07A73E383013FA369013BA36108F078F999
S315080051C0054639462046FFF7D7FEA36922691344E8
S315080051D0A361284608F072F9E7880136E36813B137
S315080051E021682046984708F063F90546FFF724FF2B
S315080051F01C4B1C68F4B16369E3B92346B5E7A846B6
S3150800520000F070F8A369C71AFA17AF4272F10002E4
S3150800521004DB22691344A3610125B8E70025B6E734
S3150800522008F046F981462046FFF7CCFE484608F0C6
S3150800523045F9AEE70C4B00221A70012E06D05CB178
S31508005240FFF718FF284608F039F974E717F0020F38
S31508005250F5D001221A70F2E7022000F08BF8F1E788
S31508005260B017002010130020D117002010B586B003
S3150800527000248DF8144001218DF804108DF805409E
S315080052808DF806400294039404943E20FDF700FA34
S3150800529005A8FFF721F88DF8044001A92046FFF775
S315080052A033F80F212046FFF75BF80F212046FFF75A
S315080052B05DF8FEF7F5FF094B5B6813F0010F03D0A5
S315080052C0064BDB69002BF6D1044B00229A61044B8E
S315080052D04022C3F888219A6006B010BD00800A50A3
S315080052E000E100E0054B5B6813F0010F03D0034BA8
S315080052F0DB69002BF6D1014B9869704700800A508C
S31508005300F8B5044608F0CDF80646FFF7EBFF054664
S3150800531008F0FFFB07460020FFF72EF810F0020FF3
S3150800532004D17B1B032B01D8BD420FD1631B022B73
S3150800533000D8EC1CB4F1FF3F2CBF2246621E0021A8
S315080053400846FFF731F8022008F0E9FB304608F076
S31508005350ACF8064B1B783BB1054A936C43F0010346
S315080053609364024B00221A70F8BD00BFE50B0020BB
S3150800537000800A5008B510F0010F11D1002110F075
S31508005380020F09D041F00201064B01221A70064AA3
S31508005390936C23F0010393640020FEF7E1FF08BD38
S315080053A00121ECE7E50B002000800A5010F0020FFF
S315080053B002D0024B02221A64704700BF00900A50BE
S315080053C010B50446FCF7C0F80E4BA3FB0023B0F556
S315080053D07A7F12D39B090C4AB2FBF3F20B4B984225
S315080053E00BD84FF47A7304FB03F3B3FBF2F30848C4
S315080053F0A0FB03204008022B00D810BDFAF7B8FE20
S31508005400FBE700BFD34D621040420F00E7CD9A3B41
S31508005410ABAAAAAA10B50A460446A1B10E4A0F4974
S315080054200F4801F08BF94FF054320E4BC3F8D820D1
S31508005430552283F8DE20FF22A3F8DC20802283F899
S31508005440E3204FF401524FF40151204603F002FACB
S3150800545003F01EFA002010BDA8F70008B0F70008F0
S3150800546078F70008003E00B007B50C4AA2F8DC1031
S31508005470437D0C3B052B4FF000030DD901938DF8A6
S315080054800410D2F8D83069461BBA0522009304F0F6
S3150800549029FA03B05DF804FB1846FAE7003E00B0A7
S315080054A01FB50E4BC3F8D81083F8DE20427D09BA23
S315080054B00C3A052A89BF00220422B3F8DC30CDE96C
S315080054C00212019185BF052202A90DEB02018DF892
S315080054D00C3004F007FA05B05DF804FB003E00B096
S315080054E02DE9F04F894647F6FF75097F89B01229DD
S315080054F028BF00210392019003F020FE4FF0000E12
